{
  "contractName": "TestBank",
  "abi": [
    {
      "inputs": [],
      "stateMutability": "nonpayable",
      "type": "constructor"
    },
    {
      "inputs": [],
      "name": "bond_contract",
      "outputs": [
        {
          "internalType": "address",
          "name": "",
          "type": "address"
        }
      ],
      "stateMutability": "view",
      "type": "function"
    },
    {
      "inputs": [],
      "name": "dev_address",
      "outputs": [
        {
          "internalType": "address",
          "name": "",
          "type": "address"
        }
      ],
      "stateMutability": "view",
      "type": "function"
    },
    {
      "inputs": [
        {
          "internalType": "uint256",
          "name": "",
          "type": "uint256"
        }
      ],
      "name": "token_contract",
      "outputs": [
        {
          "internalType": "address",
          "name": "",
          "type": "address"
        }
      ],
      "stateMutability": "view",
      "type": "function"
    },
    {
      "inputs": [
        {
          "internalType": "uint256",
          "name": "class",
          "type": "uint256"
        },
        {
          "internalType": "address",
          "name": "token_contract_address",
          "type": "address"
        },
        {
          "internalType": "address",
          "name": "bond_contract_address",
          "type": "address"
        }
      ],
      "name": "setContract",
      "outputs": [
        {
          "internalType": "bool",
          "name": "",
          "type": "bool"
        }
      ],
      "stateMutability": "nonpayable",
      "type": "function"
    },
    {
      "inputs": [
        {
          "internalType": "address",
          "name": "input_token",
          "type": "address"
        },
        {
          "internalType": "address",
          "name": "_to",
          "type": "address"
        },
        {
          "internalType": "uint256",
          "name": "amount_USD_in",
          "type": "uint256"
        }
      ],
      "name": "buyBond",
      "outputs": [
        {
          "internalType": "bool",
          "name": "",
          "type": "bool"
        }
      ],
      "stateMutability": "nonpayable",
      "type": "function"
    },
    {
      "inputs": [
        {
          "internalType": "address",
          "name": "_from",
          "type": "address"
        },
        {
          "internalType": "address",
          "name": "_to",
          "type": "address"
        },
        {
          "internalType": "uint256",
          "name": "class",
          "type": "uint256"
        },
        {
          "internalType": "uint256[]",
          "name": "nonce",
          "type": "uint256[]"
        },
        {
          "internalType": "uint256[]",
          "name": "_amount",
          "type": "uint256[]"
        }
      ],
      "name": "redeemBond",
      "outputs": [
        {
          "internalType": "bool",
          "name": "",
          "type": "bool"
        }
      ],
      "stateMutability": "nonpayable",
      "type": "function"
    }
  ],
  "bytecode": "0x608060405234801561001057600080fd5b5033600560006101000a81548173ffffffffffffffffffffffffffffffffffffffff021916908373ffffffffffffffffffffffffffffffffffffffff160217905550610a57806100616000396000f3fe608060405234801561001057600080fd5b50600436106100625760003560e01c806319d2fda71461006757806375b95eb6146100d55780637abb8efb1461011f5780637bf1648a1461016957806394f8308b146101ef578063f2875f621461031f575b600080fd5b6100936004803603602081101561007d57600080fd5b81019080803590602001909291905050506103a5565b604051808273ffffffffffffffffffffffffffffffffffffffff1673ffffffffffffffffffffffffffffffffffffffff16815260200191505060405180910390f35b6100dd6103d8565b604051808273ffffffffffffffffffffffffffffffffffffffff1673ffffffffffffffffffffffffffffffffffffffff16815260200191505060405180910390f35b6101276103fe565b604051808273ffffffffffffffffffffffffffffffffffffffff1673ffffffffffffffffffffffffffffffffffffffff16815260200191505060405180910390f35b6101d56004803603606081101561017f57600080fd5b8101908080359060200190929190803573ffffffffffffffffffffffffffffffffffffffff169060200190929190803573ffffffffffffffffffffffffffffffffffffffff169060200190929190505050610424565b604051808215151515815260200191505060405180910390f35b610305600480360360a081101561020557600080fd5b81019080803573ffffffffffffffffffffffffffffffffffffffff169060200190929190803573ffffffffffffffffffffffffffffffffffffffff169060200190929190803590602001909291908035906020019064010000000081111561026c57600080fd5b82018360208201111561027e57600080fd5b803590602001918460208302840111640100000000831117156102a057600080fd5b9091929391929390803590602001906401000000008111156102c157600080fd5b8201836020820111156102d357600080fd5b803590602001918460208302840111640100000000831117156102f557600080fd5b909192939192939050505061051e565b604051808215151515815260200191505060405180910390f35b61038b6004803603606081101561033557600080fd5b81019080803573ffffffffffffffffffffffffffffffffffffffff169060200190929190803573ffffffffffffffffffffffffffffffffffffffff169060200190929190803590602001909291905050506107b6565b604051808215151515815260200191505060405180910390f35b60036020528060005260406000206000915054906101000a900473ffffffffffffffffffffffffffffffffffffffff1681565b600460009054906101000a900473ffffffffffffffffffffffffffffffffffffffff1681565b600560009054906101000a900473ffffffffffffffffffffffffffffffffffffffff1681565b6000600560009054906101000a900473ffffffffffffffffffffffffffffffffffffffff1673ffffffffffffffffffffffffffffffffffffffff163373ffffffffffffffffffffffffffffffffffffffff161461048057600080fd5b826003600086815260200190815260200160002060006101000a81548173ffffffffffffffffffffffffffffffffffffffff021916908373ffffffffffffffffffffffffffffffffffffffff16021790555081600460006101000a81548173ffffffffffffffffffffffffffffffffffffffff021916908373ffffffffffffffffffffffffffffffffffffffff160217905550600190509392505050565b6000600460009054906101000a900473ffffffffffffffffffffffffffffffffffffffff1673ffffffffffffffffffffffffffffffffffffffff1663de26ffad8988888888886040518763ffffffff1660e01b8152600401808773ffffffffffffffffffffffffffffffffffffffff1673ffffffffffffffffffffffffffffffffffffffff16815260200186815260200180602001806020018381038352878782818152602001925060200280828437600081840152601f19601f8201169050808301925050508381038252858582818152602001925060200280828437600081840152601f19601f82011690508083019250505098505050505050505050602060405180830381600087803b15801561063757600080fd5b505af115801561064b573d6000803e3d6000fd5b505050506040513d602081101561066157600080fd5b810190808051906020019092919050505061067857fe5b600080600090505b848490508110156106af5784848281811061069757fe5b90506020020135820191508080600101915050610680565b506003600088815260200190815260200160002060009054906101000a900473ffffffffffffffffffffffffffffffffffffffff1673ffffffffffffffffffffffffffffffffffffffff166340c10f1989836040518363ffffffff1660e01b8152600401808373ffffffffffffffffffffffffffffffffffffffff1673ffffffffffffffffffffffffffffffffffffffff16815260200182815260200192505050602060405180830381600087803b15801561076a57600080fd5b505af115801561077e573d6000803e3d6000fd5b505050506040513d602081101561079457600080fd5b8101908080519060200190929190505050506001915050979650505050505050565b6000806002830290508473ffffffffffffffffffffffffffffffffffffffff166323b872dd3330866040518463ffffffff1660e01b8152600401808473ffffffffffffffffffffffffffffffffffffffff1673ffffffffffffffffffffffffffffffffffffffff1681526020018373ffffffffffffffffffffffffffffffffffffffff1673ffffffffffffffffffffffffffffffffffffffff1681526020018281526020019350505050602060405180830381600087803b15801561087a57600080fd5b505af115801561088e573d6000803e3d6000fd5b505050506040513d60208110156108a457600080fd5b8101908080519060200190929190505050610927576040517f08c379a00000000000000000000000000000000000000000000000000000000081526004018080602001828103825260138152602001807f4e6f7420656e6f756768206465706f7369742e0000000000000000000000000081525060200191505060405180910390fd5b600460009054906101000a900473ffffffffffffffffffffffffffffffffffffffff1673ffffffffffffffffffffffffffffffffffffffff1663675981b7856000846040518463ffffffff1660e01b8152600401808473ffffffffffffffffffffffffffffffffffffffff1673ffffffffffffffffffffffffffffffffffffffff1681526020018381526020018281526020019350505050602060405180830381600087803b1580156109d957600080fd5b505af11580156109ed573d6000803e3d6000fd5b505050506040513d6020811015610a0357600080fd5b8101908080519060200190929190505050506001915050939250505056fea26469706673582212206752d3c074d276ed2b6d78999db18af288c655cc134c86c45cb4af7f0339fe4264736f6c63430006080033",
  "immutableReferences": {},
  "source": "pragma solidity ^0.6.8;\nimport \"./util/IERC20.sol\";\nimport \"./util/IERC3475.sol\";\nimport \"./util/ITestToken.sol\";\n// SPDX-License-Identifier: apache 2.0\n/*\n    Copyright 2020 Sigmoid Foundation <info@SGM.finance>\n\n    Licensed under the Apache License, Version 2.0 (the \"License\");\n    you may not use this file except in compliance with the License.\n    You may obtain a copy of the License at\n\n    http://www.apache.org/licenses/LICENSE-2.0\n\n    Unless required by applicable law or agreed to in writing, software\n    distributed under the License is distributed on an \"AS IS\" BASIS,\n    WITHOUT WARRANTIES OR CONDITIONS OF ANY KIND, either express or implied.\n    See the License for the specific language governing permissions and\n    limitations under the License.\n*/\n\ninterface ITestBank {\n  \n    function setContract(uint256 class, address token_contract_address,address bond_contract_address) external returns (bool);\n    function buyBond(address input_token, address _to, uint256 amount_USD_in) external returns (bool);\n    function redeemBond(address _from, address _to, uint256 class, uint256[] calldata nonce, uint256[] calldata _amount) external returns (bool);\n    \n}\n\ncontract TestBank is ITestBank{\n    string private _name;\n    string private _symbol;\n    uint8 private _decimals;\n    mapping (uint256 => address) public token_contract;\n    address public bond_contract;\n    address public dev_address;\n   \n    constructor () public {\n        dev_address = msg.sender;\n    }\n    \n      \n    function setContract(uint256 class, address token_contract_address,address bond_contract_address) external override returns (bool) {\n        require(msg.sender==dev_address);\n        token_contract[class] = token_contract_address;\n        bond_contract = bond_contract_address;\n        return (true);\n    }\n    \n    function buyBond(address input_token, address _to, uint256 amount_USD_in) external override returns (bool){\n        uint256 amount_bond_out = amount_USD_in*2;\n        require(IERC20(input_token).transferFrom(msg.sender, address(this), amount_USD_in),'Not enough deposit.');\n        IERC3475(bond_contract).issueBond(_to, 0, amount_bond_out);\n        return(true);\n    }\n    \n  \n    function redeemBond(address _from, address _to, uint256 class, uint256[] calldata nonce, uint256[] calldata _amount) external override returns (bool){\n    assert( IERC3475(bond_contract).redeemBond(_from, class, nonce, _amount));\n    uint256 amount_token_mint;\n    for (uint i=0; i<_amount.length; i++){\n        amount_token_mint+=_amount[i];\n        }\n    ITestToken(token_contract[class]).mint(_to,amount_token_mint);\n    return(true);      \n    }\n    \n}\n",
  "sourcePath": "/home/cedric/dev/www/debond/EIP-3475/contracts/TestBank.sol",
  "compiler": {
    "name": "solc",
    "version": "0.6.8+commit.0bbfe453.Emscripten.clang"
  },
  "schemaVersion": "3.4.4",
  "updatedAt": "2022-01-18T23:10:31.220Z",
  "devdoc": {
    "methods": {}
  },
  "userdoc": {
    "methods": {}
  }
}