{
  "contractName": "TestBond",
  "abi": [
    {
      "anonymous": false,
      "inputs": [
        {
          "indexed": true,
          "internalType": "address",
          "name": "_owner",
          "type": "address"
        },
        {
          "indexed": true,
          "internalType": "address",
          "name": "_operator",
          "type": "address"
        },
        {
          "indexed": false,
          "internalType": "uint256[]",
          "name": "classId",
          "type": "uint256[]"
        },
        {
          "indexed": false,
          "internalType": "uint256[]",
          "name": "nonce",
          "type": "uint256[]"
        },
        {
          "indexed": false,
          "internalType": "bool",
          "name": "_approved",
          "type": "bool"
        }
      ],
      "name": "ApprovalFor",
      "type": "event"
    },
    {
      "anonymous": false,
      "inputs": [
        {
          "indexed": true,
          "internalType": "address",
          "name": "_operator",
          "type": "address"
        },
        {
          "indexed": true,
          "internalType": "address",
          "name": "_from",
          "type": "address"
        },
        {
          "indexed": true,
          "internalType": "address",
          "name": "_to",
          "type": "address"
        },
        {
          "indexed": false,
          "internalType": "uint256",
          "name": "_class",
          "type": "uint256"
        },
        {
          "indexed": false,
          "internalType": "uint256",
          "name": "_nonce",
          "type": "uint256"
        },
        {
          "indexed": false,
          "internalType": "uint256",
          "name": "_amount",
          "type": "uint256"
        }
      ],
      "name": "Transfer",
      "type": "event"
    },
    {
      "anonymous": false,
      "inputs": [
        {
          "indexed": true,
          "internalType": "address",
          "name": "_operator",
          "type": "address"
        },
        {
          "indexed": true,
          "internalType": "address",
          "name": "_from",
          "type": "address"
        },
        {
          "indexed": true,
          "internalType": "address",
          "name": "_to",
          "type": "address"
        },
        {
          "indexed": false,
          "internalType": "uint256[]",
          "name": "_classIds",
          "type": "uint256[]"
        },
        {
          "indexed": false,
          "internalType": "uint256[]",
          "name": "_nonces",
          "type": "uint256[]"
        },
        {
          "indexed": false,
          "internalType": "uint256[]",
          "name": "_amounts",
          "type": "uint256[]"
        }
      ],
      "name": "TransferBatch",
      "type": "event"
    },
    {
      "inputs": [
        {
          "internalType": "uint256",
          "name": "classId",
          "type": "uint256"
        },
        {
          "internalType": "uint256",
          "name": "nonceId",
          "type": "uint256"
        }
      ],
      "name": "activeSupply",
      "outputs": [
        {
          "internalType": "uint256",
          "name": "",
          "type": "uint256"
        }
      ],
      "stateMutability": "view",
      "type": "function"
    },
    {
      "inputs": [
        {
          "internalType": "address",
          "name": "account",
          "type": "address"
        },
        {
          "internalType": "uint256",
          "name": "classId",
          "type": "uint256"
        },
        {
          "internalType": "uint256",
          "name": "nonceId",
          "type": "uint256"
        }
      ],
      "name": "balanceOf",
      "outputs": [
        {
          "internalType": "uint256",
          "name": "",
          "type": "uint256"
        }
      ],
      "stateMutability": "view",
      "type": "function"
    },
    {
      "inputs": [
        {
          "internalType": "address",
          "name": "account",
          "type": "address"
        },
        {
          "internalType": "address",
          "name": "operator",
          "type": "address"
        },
        {
          "internalType": "uint256[]",
          "name": "classIds",
          "type": "uint256[]"
        },
        {
          "internalType": "uint256[]",
          "name": "nonceIds",
          "type": "uint256[]"
        }
      ],
      "name": "batchIsApprovedFor",
      "outputs": [
        {
          "internalType": "bool",
          "name": "",
          "type": "bool"
        }
      ],
      "stateMutability": "view",
      "type": "function"
    },
    {
      "inputs": [
        {
          "internalType": "address",
          "name": "from",
          "type": "address"
        },
        {
          "internalType": "address",
          "name": "to",
          "type": "address"
        },
        {
          "internalType": "uint256[]",
          "name": "classIds",
          "type": "uint256[]"
        },
        {
          "internalType": "uint256[]",
          "name": "nonceIds",
          "type": "uint256[]"
        },
        {
          "internalType": "uint256[]",
          "name": "amounts",
          "type": "uint256[]"
        }
      ],
      "name": "batchTransferFrom",
      "outputs": [],
      "stateMutability": "nonpayable",
      "type": "function"
    },
    {
      "inputs": [
        {
          "internalType": "uint256",
          "name": "classId",
          "type": "uint256"
        },
        {
          "internalType": "uint256",
          "name": "nonceId",
          "type": "uint256"
        }
      ],
      "name": "burnedSupply",
      "outputs": [
        {
          "internalType": "uint256",
          "name": "",
          "type": "uint256"
        }
      ],
      "stateMutability": "view",
      "type": "function"
    },
    {
      "inputs": [
        {
          "internalType": "uint256",
          "name": "classId",
          "type": "uint256"
        },
        {
          "internalType": "uint256",
          "name": "nonceId",
          "type": "uint256"
        }
      ],
      "name": "infos",
      "outputs": [
        {
          "internalType": "string",
          "name": "_symbol",
          "type": "string"
        },
        {
          "internalType": "uint256",
          "name": "_startingTimestamp",
          "type": "uint256"
        },
        {
          "internalType": "uint256",
          "name": "_maturityTimestamp",
          "type": "uint256"
        },
        {
          "internalType": "uint256",
          "name": "_info2",
          "type": "uint256"
        },
        {
          "internalType": "uint256",
          "name": "_info3",
          "type": "uint256"
        },
        {
          "internalType": "uint256",
          "name": "_info4",
          "type": "uint256"
        },
        {
          "internalType": "uint256",
          "name": "_info5",
          "type": "uint256"
        }
      ],
      "stateMutability": "view",
      "type": "function"
    },
    {
      "inputs": [
        {
          "internalType": "address",
          "name": "account",
          "type": "address"
        },
        {
          "internalType": "address",
          "name": "operator",
          "type": "address"
        },
        {
          "internalType": "uint256",
          "name": "classId",
          "type": "uint256"
        },
        {
          "internalType": "uint256",
          "name": "nonceId",
          "type": "uint256"
        }
      ],
      "name": "isApprovedFor",
      "outputs": [
        {
          "internalType": "bool",
          "name": "",
          "type": "bool"
        }
      ],
      "stateMutability": "view",
      "type": "function"
    },
    {
      "inputs": [
        {
          "internalType": "uint256",
          "name": "classId",
          "type": "uint256"
        },
        {
          "internalType": "uint256",
          "name": "nonceId",
          "type": "uint256"
        }
      ],
      "name": "redeemedSupply",
      "outputs": [
        {
          "internalType": "uint256",
          "name": "",
          "type": "uint256"
        }
      ],
      "stateMutability": "view",
      "type": "function"
    },
    {
      "inputs": [
        {
          "internalType": "address",
          "name": "operator",
          "type": "address"
        },
        {
          "internalType": "uint256[]",
          "name": "classIds",
          "type": "uint256[]"
        },
        {
          "internalType": "uint256[]",
          "name": "nonceIds",
          "type": "uint256[]"
        },
        {
          "internalType": "bool",
          "name": "approved",
          "type": "bool"
        }
      ],
      "name": "setApprovalFor",
      "outputs": [],
      "stateMutability": "nonpayable",
      "type": "function"
    },
    {
      "inputs": [
        {
          "internalType": "uint256",
          "name": "classId",
          "type": "uint256"
        }
      ],
      "name": "symbol",
      "outputs": [
        {
          "internalType": "string",
          "name": "",
          "type": "string"
        }
      ],
      "stateMutability": "view",
      "type": "function"
    },
    {
      "inputs": [
        {
          "internalType": "uint256",
          "name": "classId",
          "type": "uint256"
        },
        {
          "internalType": "uint256",
          "name": "nonceId",
          "type": "uint256"
        }
      ],
      "name": "totalSupply",
      "outputs": [
        {
          "internalType": "uint256",
          "name": "",
          "type": "uint256"
        }
      ],
      "stateMutability": "view",
      "type": "function"
    },
    {
      "inputs": [
        {
          "internalType": "address",
          "name": "from",
          "type": "address"
        },
        {
          "internalType": "address",
          "name": "to",
          "type": "address"
        },
        {
          "internalType": "uint256",
          "name": "classId",
          "type": "uint256"
        },
        {
          "internalType": "uint256",
          "name": "nonceId",
          "type": "uint256"
        },
        {
          "internalType": "uint256",
          "name": "amount",
          "type": "uint256"
        }
      ],
      "name": "transferFrom",
      "outputs": [],
      "stateMutability": "nonpayable",
      "type": "function"
    }
  ],
  "bytecode": "0x608060405234801561001057600080fd5b50600860026000808152602001908152602001600020819055506001600360008081526020019081526020016000208190555060006004600080815260200190815260200160002081905550611df58061006b6000396000f3fe608060405234801561001057600080fd5b50600436106100b45760003560e01c8063733d084011610071578063733d0840146106c15780639be4ebd914610865578063b15edbe5146108f5578063bc3c19f714610941578063c2458d6b1461098d578063ccea7b86146109d9576100b4565b80632d760d57146100b9578063446acb41146101255780634aed53c2146102005780634e41a1fb146102825780635637cbec14610329578063634c885f146104a1575b600080fd5b61010f600480360360608110156100cf57600080fd5b81019080803573ffffffffffffffffffffffffffffffffffffffff1690602001909291908035906020019092919080359060200190929190505050610a25565b6040518082815260200191505060405180910390f35b61015b6004803603604081101561013b57600080fd5b810190808035906020019092919080359060200190929190505050610b1c565b6040518080602001888152602001878152602001868152602001858152602001848152602001838152602001828103825289818151815260200191508051906020019080838360005b838110156101bf5780820151818401526020810190506101a4565b50505050905090810190601f1680156101ec5780820380516001836020036101000a031916815260200191505b509850505050505050505060405180910390f35b610280600480360360a081101561021657600080fd5b81019080803573ffffffffffffffffffffffffffffffffffffffff169060200190929190803573ffffffffffffffffffffffffffffffffffffffff169060200190929190803590602001909291908035906020019092919080359060200190929190505050610c58565b005b6102ae6004803603602081101561029857600080fd5b8101908080359060200190929190505050610d03565b6040518080602001828103825283818151815260200191508051906020019080838360005b838110156102ee5780820151818401526020810190506102d3565b50505050905090810190601f16801561031b5780820380516001836020036101000a031916815260200191505b509250505060405180910390f35b61049f6004803603608081101561033f57600080fd5b81019080803573ffffffffffffffffffffffffffffffffffffffff1690602001909291908035906020019064010000000081111561037c57600080fd5b82018360208201111561038e57600080fd5b803590602001918460208302840111640100000000831117156103b057600080fd5b919080806020026020016040519081016040528093929190818152602001838360200280828437600081840152601f19601f8201169050808301925050505050505091929192908035906020019064010000000081111561041057600080fd5b82018360208201111561042257600080fd5b8035906020019184602083028401116401000000008311171561044457600080fd5b919080806020026020016040519081016040528093929190818152602001838360200280828437600081840152601f19601f820116905080830192505050505050509192919290803515159060200190929190505050610dba565b005b6106bf600480360360a08110156104b757600080fd5b81019080803573ffffffffffffffffffffffffffffffffffffffff169060200190929190803573ffffffffffffffffffffffffffffffffffffffff1690602001909291908035906020019064010000000081111561051457600080fd5b82018360208201111561052657600080fd5b8035906020019184602083028401116401000000008311171561054857600080fd5b919080806020026020016040519081016040528093929190818152602001838360200280828437600081840152601f19601f820116905080830192505050505050509192919290803590602001906401000000008111156105a857600080fd5b8201836020820111156105ba57600080fd5b803590602001918460208302840111640100000000831117156105dc57600080fd5b919080806020026020016040519081016040528093929190818152602001838360200280828437600081840152601f19601f8201169050808301925050505050505091929192908035906020019064010000000081111561063c57600080fd5b82018360208201111561064e57600080fd5b8035906020019184602083028401116401000000008311171561067057600080fd5b919080806020026020016040519081016040528093929190818152602001838360200280828437600081840152601f19601f820116905080830192505050505050509192919290505050610f18565b005b61084b600480360360808110156106d757600080fd5b81019080803573ffffffffffffffffffffffffffffffffffffffff169060200190929190803573ffffffffffffffffffffffffffffffffffffffff1690602001909291908035906020019064010000000081111561073457600080fd5b82018360208201111561074657600080fd5b8035906020019184602083028401116401000000008311171561076857600080fd5b919080806020026020016040519081016040528093929190818152602001838360200280828437600081840152601f19601f820116905080830192505050505050509192919290803590602001906401000000008111156107c857600080fd5b8201836020820111156107da57600080fd5b803590602001918460208302840111640100000000831117156107fc57600080fd5b919080806020026020016040519081016040528093929190818152602001838360200280828437600081840152601f19601f820116905080830192505050505050509192919290505050611112565b604051808215151515815260200191505060405180910390f35b6108db6004803603608081101561087b57600080fd5b81019080803573ffffffffffffffffffffffffffffffffffffffff169060200190929190803573ffffffffffffffffffffffffffffffffffffffff169060200190929190803590602001909291908035906020019092919050505061127d565b604051808215151515815260200191505060405180910390f35b61092b6004803603604081101561090b57600080fd5b81019080803590602001909291908035906020019092919050505061133a565b6040518082815260200191505060405180910390f35b6109776004803603604081101561095757600080fd5b81019080803590602001909291908035906020019092919050505061136e565b6040518082815260200191505060405180910390f35b6109c3600480360360408110156109a357600080fd5b8101908080359060200190929190803590602001909291905050506113a2565b6040518082815260200191505060405180910390f35b610a0f600480360360408110156109ef57600080fd5b81019080803590602001909291908035906020019092919050505061142c565b6040518082815260200191505060405180910390f35b60008073ffffffffffffffffffffffffffffffffffffffff168473ffffffffffffffffffffffffffffffffffffffff161415610aac576040517f08c379a000000000000000000000000000000000000000000000000000000000815260040180806020018281038252602b815260200180611d3d602b913960400191505060405180910390fd5b6000808481526020019081526020016000206004016000838152602001908152602001600020600b0160008573ffffffffffffffffffffffffffffffffffffffff1673ffffffffffffffffffffffffffffffffffffffff1681526020019081526020016000205490509392505050565b606060008060008060008060008060008b8152602001908152602001600020905060008160040160008b81526020019081526020016000206007019050816002018054600181600116156101000203166002900480601f016020809104026020016040519081016040528092919081815260200182805460018160011615610100020316600290048015610bf15780601f10610bc657610100808354040283529160200191610bf1565b820191906000526020600020905b815481529060010190602001808311610bd457829003601f168201915b505050505098508160040160008b81526020019081526020016000206005015497508160040160008b815260200190815260200160002060060154965080600001549550806001015494508060020154935080600301549250505092959891949750929550565b8473ffffffffffffffffffffffffffffffffffffffff163373ffffffffffffffffffffffffffffffffffffffff161480610c9a5750610c998533858561127d565b5b610cef576040517f08c379a0000000000000000000000000000000000000000000000000000000008152600401808060200182810382526029815260200180611ce76029913960400191505060405180910390fd5b610cfc8585858585611460565b5050505050565b60606000808381526020019081526020016000206002018054600181600116156101000203166002900480601f016020809104026020016040519081016040528092919081815260200182805460018160011615610100020316600290048015610dae5780601f10610d8357610100808354040283529160200191610dae565b820191906000526020600020905b815481529060010190602001808311610d9157829003601f168201915b50505050509050919050565b8151835114610e14576040517f08c379a000000000000000000000000000000000000000000000000000000000815260040180806020018281038252602d815260200180611c64602d913960400191505060405180910390fd5b60008090505b8351811015610f115781600080868481518110610e3357fe5b602002602001015181526020019081526020016000206004016000858481518110610e5a57fe5b60200260200101518152602001908152602001600020600c0160003373ffffffffffffffffffffffffffffffffffffffff1673ffffffffffffffffffffffffffffffffffffffff16815260200190815260200160002060008773ffffffffffffffffffffffffffffffffffffffff1673ffffffffffffffffffffffffffffffffffffffff16815260200190815260200160002060006101000a81548160ff0219169083151502179055508080600101915050610e1a565b5050505050565b8473ffffffffffffffffffffffffffffffffffffffff163373ffffffffffffffffffffffffffffffffffffffff161480610f5a5750610f5985338585611112565b5b610faf576040517f08c379a0000000000000000000000000000000000000000000000000000000008152600401808060200182810382526029815260200180611ce76029913960400191505060405180910390fd5b610fbc85858585856116cb565b8373ffffffffffffffffffffffffffffffffffffffff168573ffffffffffffffffffffffffffffffffffffffff163373ffffffffffffffffffffffffffffffffffffffff167ffb75bd3a9b4b3ae2b21dc1a8aad1d9ab156f8d577b05320c9c84bc98780a375286868660405180806020018060200180602001848103845287818151815260200191508051906020019060200280838360005b83811015611070578082015181840152602081019050611055565b50505050905001848103835286818151815260200191508051906020019060200280838360005b838110156110b2578082015181840152602081019050611097565b50505050905001848103825285818151815260200191508051906020019060200280838360005b838110156110f45780820151818401526020810190506110d9565b50505050905001965050505050505060405180910390a45050505050565b6000815183511461116e576040517f08c379a000000000000000000000000000000000000000000000000000000000815260040180806020018281038252602d815260200180611c64602d913960400191505060405180910390fd5b60008090505b835181101561126f5760008085838151811061118c57fe5b6020026020010151815260200190815260200160002060040160008483815181106111b357fe5b60200260200101518152602001908152602001600020600c0160008773ffffffffffffffffffffffffffffffffffffffff1673ffffffffffffffffffffffffffffffffffffffff16815260200190815260200160002060008673ffffffffffffffffffffffffffffffffffffffff1673ffffffffffffffffffffffffffffffffffffffff16815260200190815260200160002060009054906101000a900460ff16611262576000915050611275565b8080600101915050611174565b50600190505b949350505050565b60008060008481526020019081526020016000206004016000838152602001908152602001600020600c0160008673ffffffffffffffffffffffffffffffffffffffff1673ffffffffffffffffffffffffffffffffffffffff16815260200190815260200160002060008573ffffffffffffffffffffffffffffffffffffffff1673ffffffffffffffffffffffffffffffffffffffff16815260200190815260200160002060009054906101000a900460ff169050949350505050565b6000806000848152602001908152602001600020600401600083815260200190815260200160002060020154905092915050565b6000806000848152602001908152602001600020600401600083815260200190815260200160002060030154905092915050565b60008060008481526020019081526020016000206004016000838152602001908152602001600020600301546000808581526020019081526020016000206004016000848152602001908152602001600020600401546000808681526020019081526020016000206004016000858152602001908152602001600020600201540101905092915050565b6000806000848152602001908152602001600020600401600083815260200190815260200160002060030154905092915050565b600073ffffffffffffffffffffffffffffffffffffffff168573ffffffffffffffffffffffffffffffffffffffff1614156114e6576040517f08c379a000000000000000000000000000000000000000000000000000000000815260040180806020018281038252602d815260200180611d10602d913960400191505060405180910390fd5b600073ffffffffffffffffffffffffffffffffffffffff168473ffffffffffffffffffffffffffffffffffffffff16141561156c576040517f08c379a000000000000000000000000000000000000000000000000000000000815260040180806020018281038252602b815260200180611c91602b913960400191505060405180910390fd5b806000808581526020019081526020016000206004016000848152602001908152602001600020600b0160008773ffffffffffffffffffffffffffffffffffffffff1673ffffffffffffffffffffffffffffffffffffffff16815260200190815260200160002054101561162b576040517f08c379a0000000000000000000000000000000000000000000000000000000008152600401808060200182810382526024815260200180611d686024913960400191505060405180910390fd5b6116388585858585611aef565b8373ffffffffffffffffffffffffffffffffffffffff168573ffffffffffffffffffffffffffffffffffffffff163373ffffffffffffffffffffffffffffffffffffffff167f737ab30b9cd3ddae02069f3057591007faf2305652d04c2582f7f1f6185d971186868660405180848152602001838152602001828152602001935050505060405180910390a45050505050565b815183511480156116dd575080518351145b611732576040517f08c379a0000000000000000000000000000000000000000000000000000000008152600401808060200182810382526034815260200180611d8c6034913960400191505060405180910390fd5b600073ffffffffffffffffffffffffffffffffffffffff168573ffffffffffffffffffffffffffffffffffffffff1614156117b8576040517f08c379a000000000000000000000000000000000000000000000000000000000815260040180806020018281038252602d815260200180611d10602d913960400191505060405180910390fd5b600073ffffffffffffffffffffffffffffffffffffffff168473ffffffffffffffffffffffffffffffffffffffff16141561183e576040517f08c379a000000000000000000000000000000000000000000000000000000000815260040180806020018281038252602b815260200180611c91602b913960400191505060405180910390fd5b60008090505b82518110156119985781818151811061185957fe5b602002602001015160008086848151811061187057fe5b60200260200101518152602001908152602001600020600401600085848151811061189757fe5b60200260200101518152602001908152602001600020600b0160008873ffffffffffffffffffffffffffffffffffffffff1673ffffffffffffffffffffffffffffffffffffffff168152602001908152602001600020541015611945576040517f08c379a0000000000000000000000000000000000000000000000000000000008152600401808060200182810382526024815260200180611d686024913960400191505060405180910390fd5b61198b868686848151811061195657fe5b602002602001015186858151811061196a57fe5b602002602001015186868151811061197e57fe5b6020026020010151611aef565b8080600101915050611844565b508373ffffffffffffffffffffffffffffffffffffffff168573ffffffffffffffffffffffffffffffffffffffff163373ffffffffffffffffffffffffffffffffffffffff167ffb75bd3a9b4b3ae2b21dc1a8aad1d9ab156f8d577b05320c9c84bc98780a375286868660405180806020018060200180602001848103845287818151815260200191508051906020019060200280838360005b83811015611a4d578082015181840152602081019050611a32565b50505050905001848103835286818151815260200191508051906020019060200280838360005b83811015611a8f578082015181840152602081019050611a74565b50505050905001848103825285818151815260200191508051906020019060200280838360005b83811015611ad1578082015181840152602081019050611ab6565b50505050905001965050505050505060405180910390a45050505050565b8373ffffffffffffffffffffffffffffffffffffffff168573ffffffffffffffffffffffffffffffffffffffff161415611b74576040517f08c379a000000000000000000000000000000000000000000000000000000000815260040180806020018281038252602b815260200180611cbc602b913960400191505060405180910390fd5b806000808581526020019081526020016000206004016000848152602001908152602001600020600b0160008773ffffffffffffffffffffffffffffffffffffffff1673ffffffffffffffffffffffffffffffffffffffff16815260200190815260200160002060008282540392505081905550806000808581526020019081526020016000206004016000848152602001908152602001600020600b0160008673ffffffffffffffffffffffffffffffffffffffff1673ffffffffffffffffffffffffffffffffffffffff16815260200190815260200160002060008282540192505081905550505050505056fe455243333437353a205f636c617373657320616e64205f6e6f6e636573206c656e677468206d69736d61746368455243333437353a2063616e2774207472616e7366657220746f20746865207a65726f2061646472657373455243333437353a2063616e2774207472616e7366657220746f207468652073616d652061646472657373455243333437353a2063616c6c6572206973206e6f74206f776e6572206e6f7220617070726f766564455243333437353a2063616e2774207472616e736665722066726f6d20746865207a65726f2061646472657373455243333437353a2062616c616e636520717565727920666f7220746865207a65726f2061646472657373455243333437353a206e6f7420656e6f75676820626f6e6420746f207472616e73666572455243333437353a20636c61737365732c206e6f6e63657320616e6420616d6f756e7473206c656e677468206d69736d61746368a26469706673582212201ee6133625d3b3f3ac131f719f46cae4040a8121da1aac9697e94542a8c8128d64736f6c63430006080033",
  "immutableReferences": {},
  "source": "pragma solidity ^0.6.2;\n\nimport \"./library/SafeMath.sol\";\nimport \"./ERC3475/ERC3475.sol\";\n// SPDX-License-Identifier: apache 2.0\n/*\n    Copyright 2020 Sigmoid Foundation <info@SGM.finance>\n\n    Licensed under the Apache License, Version 2.0 (the \"License\");\n    you may not use this file except in compliance with the License.\n    You may obtain a copy of the License at\n\n    http://www.apache.org/licenses/LICENSE-2.0\n\n    Unless required by applicable law or agreed to in writing, software\n    distributed under the License is distributed on an \"AS IS\" BASIS,\n    WITHOUT WARRANTIES OR CONDITIONS OF ANY KIND, either express or implied.\n    See the License for the specific language governing permissions and\n    limitations under the License.\n*/\n\ncontract TestBond is ERC3475 {\n\n}\n",
  "sourcePath": "/home/cedric/dev/www/debond/EIP-3475/contracts/TestBond.sol",
  "compiler": {
    "name": "solc",
    "version": "0.6.8+commit.0bbfe453.Emscripten.clang"
  },
  "schemaVersion": "3.4.3",
  "updatedAt": "2022-02-09T17:01:28.778Z",
  "devdoc": {
    "methods": {}
  },
  "userdoc": {
    "methods": {}
  }
}