{
  "contractName": "TestBond",
  "abi": [
    {
      "inputs": [],
      "stateMutability": "nonpayable",
      "type": "constructor"
    },
    {
      "anonymous": false,
      "inputs": [
        {
          "indexed": true,
          "internalType": "address",
          "name": "_owner",
          "type": "address"
        },
        {
          "indexed": true,
          "internalType": "address",
          "name": "_operator",
          "type": "address"
        },
        {
          "indexed": false,
          "internalType": "uint256[]",
          "name": "class",
          "type": "uint256[]"
        },
        {
          "indexed": false,
          "internalType": "uint256[]",
          "name": "nonce",
          "type": "uint256[]"
        },
        {
          "indexed": false,
          "internalType": "bool",
          "name": "_approved",
          "type": "bool"
        }
      ],
      "name": "ApprovalFor",
      "type": "event"
    },
    {
      "anonymous": false,
      "inputs": [
        {
          "indexed": true,
          "internalType": "address",
          "name": "_operator",
          "type": "address"
        },
        {
          "indexed": true,
          "internalType": "address",
          "name": "_from",
          "type": "address"
        },
        {
          "indexed": true,
          "internalType": "address",
          "name": "_to",
          "type": "address"
        },
        {
          "indexed": false,
          "internalType": "uint256[]",
          "name": "_classes",
          "type": "uint256[]"
        },
        {
          "indexed": false,
          "internalType": "uint256[]",
          "name": "_nonces",
          "type": "uint256[]"
        },
        {
          "indexed": false,
          "internalType": "uint256[]",
          "name": "_amounts",
          "type": "uint256[]"
        }
      ],
      "name": "TransferBatch",
      "type": "event"
    },
    {
      "anonymous": false,
      "inputs": [
        {
          "indexed": true,
          "internalType": "address",
          "name": "_operator",
          "type": "address"
        },
        {
          "indexed": true,
          "internalType": "address",
          "name": "_from",
          "type": "address"
        },
        {
          "indexed": true,
          "internalType": "address",
          "name": "_to",
          "type": "address"
        },
        {
          "indexed": false,
          "internalType": "uint256",
          "name": "_class",
          "type": "uint256"
        },
        {
          "indexed": false,
          "internalType": "uint256",
          "name": "_nonce",
          "type": "uint256"
        },
        {
          "indexed": false,
          "internalType": "uint256",
          "name": "_amount",
          "type": "uint256"
        }
      ],
      "name": "TransferSingle",
      "type": "event"
    },
    {
      "inputs": [
        {
          "internalType": "uint256",
          "name": "class",
          "type": "uint256"
        },
        {
          "internalType": "uint256",
          "name": "nonce",
          "type": "uint256"
        }
      ],
      "name": "activeSupply",
      "outputs": [
        {
          "internalType": "uint256",
          "name": "",
          "type": "uint256"
        }
      ],
      "stateMutability": "view",
      "type": "function"
    },
    {
      "inputs": [
        {
          "internalType": "address",
          "name": "account",
          "type": "address"
        },
        {
          "internalType": "uint256",
          "name": "class",
          "type": "uint256"
        },
        {
          "internalType": "uint256",
          "name": "nonce",
          "type": "uint256"
        }
      ],
      "name": "balanceOf",
      "outputs": [
        {
          "internalType": "uint256",
          "name": "",
          "type": "uint256"
        }
      ],
      "stateMutability": "view",
      "type": "function"
    },
    {
      "inputs": [
        {
          "internalType": "address",
          "name": "_account",
          "type": "address"
        },
        {
          "internalType": "address",
          "name": "_operator",
          "type": "address"
        },
        {
          "internalType": "uint256[]",
          "name": "classes",
          "type": "uint256[]"
        },
        {
          "internalType": "uint256[]",
          "name": "nonces",
          "type": "uint256[]"
        }
      ],
      "name": "batchIsApprovedFor",
      "outputs": [
        {
          "internalType": "bool",
          "name": "",
          "type": "bool"
        }
      ],
      "stateMutability": "view",
      "type": "function"
    },
    {
      "inputs": [
        {
          "internalType": "address",
          "name": "_from",
          "type": "address"
        },
        {
          "internalType": "address",
          "name": "_to",
          "type": "address"
        },
        {
          "internalType": "uint256[]",
          "name": "classes",
          "type": "uint256[]"
        },
        {
          "internalType": "uint256[]",
          "name": "nonces",
          "type": "uint256[]"
        },
        {
          "internalType": "uint256[]",
          "name": "_amounts",
          "type": "uint256[]"
        }
      ],
      "name": "batchTransferFrom",
      "outputs": [],
      "stateMutability": "nonpayable",
      "type": "function"
    },
    {
      "inputs": [
        {
          "internalType": "uint256",
          "name": "class",
          "type": "uint256"
        },
        {
          "internalType": "uint256",
          "name": "nonce",
          "type": "uint256"
        }
      ],
      "name": "burnedSupply",
      "outputs": [
        {
          "internalType": "uint256",
          "name": "",
          "type": "uint256"
        }
      ],
      "stateMutability": "view",
      "type": "function"
    },
    {
      "inputs": [],
      "name": "dev_address",
      "outputs": [
        {
          "internalType": "address",
          "name": "",
          "type": "address"
        }
      ],
      "stateMutability": "view",
      "type": "function"
    },
    {
      "inputs": [
        {
          "internalType": "uint256",
          "name": "class",
          "type": "uint256"
        },
        {
          "internalType": "uint256",
          "name": "nonce",
          "type": "uint256"
        }
      ],
      "name": "infos",
      "outputs": [
        {
          "internalType": "string",
          "name": "_symbol",
          "type": "string"
        },
        {
          "internalType": "uint256",
          "name": "_timestamp",
          "type": "uint256"
        },
        {
          "internalType": "uint256",
          "name": "_info2",
          "type": "uint256"
        },
        {
          "internalType": "uint256",
          "name": "_info3",
          "type": "uint256"
        },
        {
          "internalType": "uint256",
          "name": "_info4",
          "type": "uint256"
        },
        {
          "internalType": "uint256",
          "name": "_info5",
          "type": "uint256"
        },
        {
          "internalType": "uint256",
          "name": "_info6",
          "type": "uint256"
        }
      ],
      "stateMutability": "view",
      "type": "function"
    },
    {
      "inputs": [
        {
          "internalType": "address",
          "name": "_account",
          "type": "address"
        },
        {
          "internalType": "address",
          "name": "_operator",
          "type": "address"
        },
        {
          "internalType": "uint256",
          "name": "_class",
          "type": "uint256"
        },
        {
          "internalType": "uint256",
          "name": "_nonce",
          "type": "uint256"
        }
      ],
      "name": "isApprovedFor",
      "outputs": [
        {
          "internalType": "bool",
          "name": "",
          "type": "bool"
        }
      ],
      "stateMutability": "view",
      "type": "function"
    },
    {
      "inputs": [
        {
          "internalType": "uint256",
          "name": "class",
          "type": "uint256"
        },
        {
          "internalType": "uint256",
          "name": "nonce",
          "type": "uint256"
        }
      ],
      "name": "isRedeemable",
      "outputs": [
        {
          "internalType": "bool",
          "name": "",
          "type": "bool"
        }
      ],
      "stateMutability": "view",
      "type": "function"
    },
    {
      "inputs": [
        {
          "internalType": "uint256",
          "name": "class",
          "type": "uint256"
        },
        {
          "internalType": "uint256",
          "name": "nonce",
          "type": "uint256"
        }
      ],
      "name": "redeemedSupply",
      "outputs": [
        {
          "internalType": "uint256",
          "name": "",
          "type": "uint256"
        }
      ],
      "stateMutability": "view",
      "type": "function"
    },
    {
      "inputs": [
        {
          "internalType": "address",
          "name": "_operator",
          "type": "address"
        },
        {
          "internalType": "uint256[]",
          "name": "_classes",
          "type": "uint256[]"
        },
        {
          "internalType": "uint256[]",
          "name": "nonces",
          "type": "uint256[]"
        },
        {
          "internalType": "bool",
          "name": "_approved",
          "type": "bool"
        }
      ],
      "name": "setApprovalFor",
      "outputs": [],
      "stateMutability": "nonpayable",
      "type": "function"
    },
    {
      "inputs": [
        {
          "internalType": "uint256",
          "name": "class",
          "type": "uint256"
        }
      ],
      "name": "symbol",
      "outputs": [
        {
          "internalType": "string",
          "name": "",
          "type": "string"
        }
      ],
      "stateMutability": "view",
      "type": "function"
    },
    {
      "inputs": [
        {
          "internalType": "uint256",
          "name": "class",
          "type": "uint256"
        },
        {
          "internalType": "uint256",
          "name": "nonce",
          "type": "uint256"
        }
      ],
      "name": "totalSupply",
      "outputs": [
        {
          "internalType": "uint256",
          "name": "",
          "type": "uint256"
        }
      ],
      "stateMutability": "view",
      "type": "function"
    },
    {
      "inputs": [
        {
          "internalType": "address",
          "name": "_from",
          "type": "address"
        },
        {
          "internalType": "address",
          "name": "_to",
          "type": "address"
        },
        {
          "internalType": "uint256",
          "name": "_class",
          "type": "uint256"
        },
        {
          "internalType": "uint256",
          "name": "_nonce",
          "type": "uint256"
        },
        {
          "internalType": "uint256",
          "name": "_amount",
          "type": "uint256"
        }
      ],
      "name": "transferFrom",
      "outputs": [],
      "stateMutability": "nonpayable",
      "type": "function"
    }
  ],
  "bytecode": "0x608060405233600c60006101000a81548173ffffffffffffffffffffffffffffffffffffffff021916908373ffffffffffffffffffffffffffffffffffffffff16021790555034801561005157600080fd5b50600860096000808152602001908152602001600020819055506001600a6000808152602001908152602001600020819055506000600b600080815260200190815260200160002081905550612021806100ac6000396000f3fe608060405234801561001057600080fd5b50600436106100e95760003560e01c8063733d08401161008c578063b15edbe511610066578063b15edbe5146109c4578063bc3c19f714610a10578063c2458d6b14610a5c578063ccea7b8614610aa8576100e9565b8063733d0840146107465780637abb8efb146108ea5780639be4ebd914610934576100e9565b80634aed53c2116100c85780634aed53c2146102855780634e41a1fb146103075780635637cbec146103ae578063634c885f14610526576100e9565b8062ad7e88146100ee5780632d760d571461013e578063446acb41146101aa575b600080fd5b6101246004803603604081101561010457600080fd5b810190808035906020019092919080359060200190929190505050610af4565b604051808215151515815260200191505060405180910390f35b6101946004803603606081101561015457600080fd5b81019080803573ffffffffffffffffffffffffffffffffffffffff1690602001909291908035906020019092919080359060200190929190505050610c49565b6040518082815260200191505060405180910390f35b6101e0600480360360408110156101c057600080fd5b810190808035906020019092919080359060200190929190505050610d3a565b6040518080602001888152602001878152602001868152602001858152602001848152602001838152602001828103825289818151815260200191508051906020019080838360005b83811015610244578082015181840152602081019050610229565b50505050905090810190601f1680156102715780820380516001836020036101000a031916815260200191505b509850505050505050505060405180910390f35b610305600480360360a081101561029b57600080fd5b81019080803573ffffffffffffffffffffffffffffffffffffffff169060200190929190803573ffffffffffffffffffffffffffffffffffffffff169060200190929190803590602001909291908035906020019092919080359060200190929190505050610f55565b005b6103336004803603602081101561031d57600080fd5b810190808035906020019092919050505061108c565b6040518080602001828103825283818151815260200191508051906020019080838360005b83811015610373578082015181840152602081019050610358565b50505050905090810190601f1680156103a05780820380516001836020036101000a031916815260200191505b509250505060405180910390f35b610524600480360360808110156103c457600080fd5b81019080803573ffffffffffffffffffffffffffffffffffffffff1690602001909291908035906020019064010000000081111561040157600080fd5b82018360208201111561041357600080fd5b8035906020019184602083028401116401000000008311171561043557600080fd5b919080806020026020016040519081016040528093929190818152602001838360200280828437600081840152601f19601f8201169050808301925050505050505091929192908035906020019064010000000081111561049557600080fd5b8201836020820111156104a757600080fd5b803590602001918460208302840111640100000000831117156104c957600080fd5b919080806020026020016040519081016040528093929190818152602001838360200280828437600081840152601f19601f820116905080830192505050505050509192919290803515159060200190929190505050611141565b005b610744600480360360a081101561053c57600080fd5b81019080803573ffffffffffffffffffffffffffffffffffffffff169060200190929190803573ffffffffffffffffffffffffffffffffffffffff1690602001909291908035906020019064010000000081111561059957600080fd5b8201836020820111156105ab57600080fd5b803590602001918460208302840111640100000000831117156105cd57600080fd5b919080806020026020016040519081016040528093929190818152602001838360200280828437600081840152601f19601f8201169050808301925050505050505091929192908035906020019064010000000081111561062d57600080fd5b82018360208201111561063f57600080fd5b8035906020019184602083028401116401000000008311171561066157600080fd5b919080806020026020016040519081016040528093929190818152602001838360200280828437600081840152601f19601f820116905080830192505050505050509192919290803590602001906401000000008111156106c157600080fd5b8201836020820111156106d357600080fd5b803590602001918460208302840111640100000000831117156106f557600080fd5b919080806020026020016040519081016040528093929190818152602001838360200280828437600081840152601f19601f82011690508083019250505050505050919291929050505061129a565b005b6108d06004803603608081101561075c57600080fd5b81019080803573ffffffffffffffffffffffffffffffffffffffff169060200190929190803573ffffffffffffffffffffffffffffffffffffffff169060200190929190803590602001906401000000008111156107b957600080fd5b8201836020820111156107cb57600080fd5b803590602001918460208302840111640100000000831117156107ed57600080fd5b919080806020026020016040519081016040528093929190818152602001838360200280828437600081840152601f19601f8201169050808301925050505050505091929192908035906020019064010000000081111561084d57600080fd5b82018360208201111561085f57600080fd5b8035906020019184602083028401116401000000008311171561088157600080fd5b919080806020026020016040519081016040528093929190818152602001838360200280828437600081840152601f19601f820116905080830192505050505050509192919290505050611494565b604051808215151515815260200191505060405180910390f35b6108f26115fa565b604051808273ffffffffffffffffffffffffffffffffffffffff1673ffffffffffffffffffffffffffffffffffffffff16815260200191505060405180910390f35b6109aa6004803603608081101561094a57600080fd5b81019080803573ffffffffffffffffffffffffffffffffffffffff169060200190929190803573ffffffffffffffffffffffffffffffffffffffff1690602001909291908035906020019092919080359060200190929190505050611620565b604051808215151515815260200191505060405180910390f35b6109fa600480360360408110156109da57600080fd5b8101908080359060200190929190803590602001909291905050506116d8565b6040518082815260200191505060405180910390f35b610a4660048036036040811015610a2657600080fd5b810190808035906020019092919080359060200190929190505050611707565b6040518082815260200191505060405180910390f35b610a9260048036036040811015610a7257600080fd5b810190808035906020019092919080359060200190929190505050611736565b6040518082815260200191505060405180910390f35b610ade60048036036040811015610abe57600080fd5b8101908080359060200190929190803590602001909291905050506117b1565b6040518082815260200191505060405180910390f35b600042600460008581526020019081526020016000206000848152602001908152602001600020600060018152602001908152602001600020541015610c3e5760008060008090505b60066000878152602001908152602001600020548111610bb357600360008781526020019081526020016000206000828152602001908152602001600020546001600088815260200190815260200160002060008381526020019081526020016000205401830192508080600101915050610b3d565b5060008090505b848111610c2057600260036000888152602001908152602001600020600083815260200190815260200160002054600160008981526020019081526020016000206000848152602001908152602001600020540102820191508080600101915050610bba565b50808210610c3357600192505050610c43565b600092505050610c43565b600090505b92915050565b60008073ffffffffffffffffffffffffffffffffffffffff168473ffffffffffffffffffffffffffffffffffffffff161415610cd0576040517f08c379a000000000000000000000000000000000000000000000000000000000815260040180806020018281038252602b815260200180611f69602b913960400191505060405180910390fd5b6000808573ffffffffffffffffffffffffffffffffffffffff1673ffffffffffffffffffffffffffffffffffffffff168152602001908152602001600020600084815260200190815260200160002060008381526020019081526020016000205490509392505050565b6060600080600080600080600560008a81526020019081526020016000208054600181600116156101000203166002900480601f016020809104026020016040519081016040528092919081815260200182805460018160011615610100020316600290048015610dec5780601f10610dc157610100808354040283529160200191610dec565b820191906000526020600020905b815481529060010190602001808311610dcf57829003601f168201915b50505050509650600460008a81526020019081526020016000206000898152602001908152602001600020600060018152602001908152602001600020549550600460008a81526020019081526020016000206000898152602001908152602001600020600060028152602001908152602001600020549450600460008a81526020019081526020016000206000898152602001908152602001600020600060038152602001908152602001600020549350600460008a81526020019081526020016000206000898152602001908152602001600020600060048152602001908152602001600020549250600460008a81526020019081526020016000206000898152602001908152602001600020600060058152602001908152602001600020549150600460008a8152602001908152602001600020600089815260200190815260200160002060006006815260200190815260200160002054905092959891949750929550565b8473ffffffffffffffffffffffffffffffffffffffff163373ffffffffffffffffffffffffffffffffffffffff161480610f975750610f9685338585611620565b5b610fec576040517f08c379a0000000000000000000000000000000000000000000000000000000008152600401808060200182810382526029815260200180611f136029913960400191505060405180910390fd5b610ff985858585856117e0565b8373ffffffffffffffffffffffffffffffffffffffff168573ffffffffffffffffffffffffffffffffffffffff163373ffffffffffffffffffffffffffffffffffffffff167f6dd19f7a3c9876a81d9697154a355010276a46cbc419c0698e58907c3dec452a86868660405180848152602001838152602001828152602001935050505060405180910390a45050505050565b6060600560008381526020019081526020016000208054600181600116156101000203166002900480601f0160208091040260200160405190810160405280929190818152602001828054600181600116156101000203166002900480156111355780601f1061110a57610100808354040283529160200191611135565b820191906000526020600020905b81548152906001019060200180831161111857829003601f168201915b50505050509050919050565b815183511461119b576040517f08c379a000000000000000000000000000000000000000000000000000000000815260040180806020018281038252602d815260200180611ebb602d913960400191505060405180910390fd5b60008090505b83518110156112935781600860003373ffffffffffffffffffffffffffffffffffffffff1673ffffffffffffffffffffffffffffffffffffffff16815260200190815260200160002060008684815181106111f857fe5b60200260200101518152602001908152602001600020600085848151811061121c57fe5b6020026020010151815260200190815260200160002060008773ffffffffffffffffffffffffffffffffffffffff1673ffffffffffffffffffffffffffffffffffffffff16815260200190815260200160002060006101000a81548160ff02191690831515021790555080806001019150506111a1565b5050505050565b8473ffffffffffffffffffffffffffffffffffffffff163373ffffffffffffffffffffffffffffffffffffffff1614806112dc57506112db85338585611494565b5b611331576040517f08c379a0000000000000000000000000000000000000000000000000000000008152600401808060200182810382526029815260200180611f136029913960400191505060405180910390fd5b61133e85858585856119b9565b8373ffffffffffffffffffffffffffffffffffffffff168573ffffffffffffffffffffffffffffffffffffffff163373ffffffffffffffffffffffffffffffffffffffff167ffb75bd3a9b4b3ae2b21dc1a8aad1d9ab156f8d577b05320c9c84bc98780a375286868660405180806020018060200180602001848103845287818151815260200191508051906020019060200280838360005b838110156113f25780820151818401526020810190506113d7565b50505050905001848103835286818151815260200191508051906020019060200280838360005b83811015611434578082015181840152602081019050611419565b50505050905001848103825285818151815260200191508051906020019060200280838360005b8381101561147657808201518184015260208101905061145b565b50505050905001965050505050505060405180910390a45050505050565b600081518351146114f0576040517f08c379a000000000000000000000000000000000000000000000000000000000815260040180806020018281038252602d815260200180611ebb602d913960400191505060405180910390fd5b60008090505b83518110156115ec57600860008773ffffffffffffffffffffffffffffffffffffffff1673ffffffffffffffffffffffffffffffffffffffff168152602001908152602001600020600085838151811061154c57fe5b60200260200101518152602001908152602001600020600084838151811061157057fe5b6020026020010151815260200190815260200160002060008673ffffffffffffffffffffffffffffffffffffffff1673ffffffffffffffffffffffffffffffffffffffff16815260200190815260200160002060009054906101000a900460ff166115df5760009150506115f2565b80806001019150506114f6565b50600190505b949350505050565b600c60009054906101000a900473ffffffffffffffffffffffffffffffffffffffff1681565b6000600860008673ffffffffffffffffffffffffffffffffffffffff1673ffffffffffffffffffffffffffffffffffffffff1681526020019081526020016000206000848152602001908152602001600020600083815260200190815260200160002060008573ffffffffffffffffffffffffffffffffffffffff1673ffffffffffffffffffffffffffffffffffffffff16815260200190815260200160002060009054906101000a900460ff169050949350505050565b600060016000848152602001908152602001600020600083815260200190815260200160002054905092915050565b600060026000848152602001908152602001600020600083815260200190815260200160002054905092915050565b60006003600084815260200190815260200160002060008381526020019081526020016000205460026000858152602001908152602001600020600084815260200190815260200160002054600160008681526020019081526020016000206000858152602001908152602001600020540101905092915050565b600060036000848152602001908152602001600020600083815260200190815260200160002054905092915050565b600073ffffffffffffffffffffffffffffffffffffffff168573ffffffffffffffffffffffffffffffffffffffff161415611866576040517f08c379a000000000000000000000000000000000000000000000000000000000815260040180806020018281038252602d815260200180611f3c602d913960400191505060405180910390fd5b600073ffffffffffffffffffffffffffffffffffffffff168473ffffffffffffffffffffffffffffffffffffffff1614156118ec576040517f08c379a000000000000000000000000000000000000000000000000000000000815260040180806020018281038252602b815260200180611ee8602b913960400191505060405180910390fd5b806000808773ffffffffffffffffffffffffffffffffffffffff1673ffffffffffffffffffffffffffffffffffffffff168152602001908152602001600020600085815260200190815260200160002060008481526020019081526020016000205410156119a5576040517f08c379a0000000000000000000000000000000000000000000000000000000008152600401808060200182810382526024815260200180611f946024913960400191505060405180910390fd5b6119b28585858585611dd7565b5050505050565b815183511480156119cb575080518351145b611a20576040517f08c379a0000000000000000000000000000000000000000000000000000000008152600401808060200182810382526034815260200180611fb86034913960400191505060405180910390fd5b600073ffffffffffffffffffffffffffffffffffffffff168573ffffffffffffffffffffffffffffffffffffffff161415611aa6576040517f08c379a000000000000000000000000000000000000000000000000000000000815260040180806020018281038252602d815260200180611f3c602d913960400191505060405180910390fd5b600073ffffffffffffffffffffffffffffffffffffffff168473ffffffffffffffffffffffffffffffffffffffff161415611b2c576040517f08c379a000000000000000000000000000000000000000000000000000000000815260040180806020018281038252602b815260200180611ee8602b913960400191505060405180910390fd5b60008090505b8251811015611c8057818181518110611b4757fe5b60200260200101516000808873ffffffffffffffffffffffffffffffffffffffff1673ffffffffffffffffffffffffffffffffffffffff1681526020019081526020016000206000868481518110611b9b57fe5b602002602001015181526020019081526020016000206000858481518110611bbf57fe5b60200260200101518152602001908152602001600020541015611c2d576040517f08c379a0000000000000000000000000000000000000000000000000000000008152600401808060200182810382526024815260200180611f946024913960400191505060405180910390fd5b611c738686868481518110611c3e57fe5b6020026020010151868581518110611c5257fe5b6020026020010151868681518110611c6657fe5b6020026020010151611dd7565b8080600101915050611b32565b508373ffffffffffffffffffffffffffffffffffffffff168573ffffffffffffffffffffffffffffffffffffffff163373ffffffffffffffffffffffffffffffffffffffff167ffb75bd3a9b4b3ae2b21dc1a8aad1d9ab156f8d577b05320c9c84bc98780a375286868660405180806020018060200180602001848103845287818151815260200191508051906020019060200280838360005b83811015611d35578082015181840152602081019050611d1a565b50505050905001848103835286818151815260200191508051906020019060200280838360005b83811015611d77578082015181840152602081019050611d5c565b50505050905001848103825285818151815260200191508051906020019060200280838360005b83811015611db9578082015181840152602081019050611d9e565b50505050905001965050505050505060405180910390a45050505050565b806000808773ffffffffffffffffffffffffffffffffffffffff1673ffffffffffffffffffffffffffffffffffffffff1681526020019081526020016000206000858152602001908152602001600020600084815260200190815260200160002060008282540392505081905550806000808673ffffffffffffffffffffffffffffffffffffffff1673ffffffffffffffffffffffffffffffffffffffff1681526020019081526020016000206000858152602001908152602001600020600084815260200190815260200160002060008282540192505081905550505050505056fe455243333437353a205f636c617373657320616e64205f6e6f6e636573206c656e677468206d69736d61746368455243333437353a2063616e2774207472616e7366657220746f20746865207a65726f2061646472657373455243333437353a2063616c6c6572206973206e6f74206f776e6572206e6f7220617070726f766564455243333437353a2063616e2774207472616e736665722066726f6d20746865207a65726f2061646472657373455243333437353a2062616c616e636520717565727920666f7220746865207a65726f2061646472657373455243333437353a206e6f7420656e6f75676820626f6e6420746f207472616e73666572455243333437353a20636c61737365732c206e6f6e63657320616e6420616d6f756e7473206c656e677468206d69736d61746368a2646970667358221220a41301b06c665687ca0178a04547e88b195fc241adc04268d4a133826152659a64736f6c63430006080033",
  "immutableReferences": {},
  "source": "pragma solidity ^0.6.2;\n\nimport \"./library/SafeMath.sol\";\nimport \"./ERC3475/ERC3475.sol\";\n// SPDX-License-Identifier: apache 2.0\n/*\n    Copyright 2020 Sigmoid Foundation <info@SGM.finance>\n\n    Licensed under the Apache License, Version 2.0 (the \"License\");\n    you may not use this file except in compliance with the License.\n    You may obtain a copy of the License at\n\n    http://www.apache.org/licenses/LICENSE-2.0\n\n    Unless required by applicable law or agreed to in writing, software\n    distributed under the License is distributed on an \"AS IS\" BASIS,\n    WITHOUT WARRANTIES OR CONDITIONS OF ANY KIND, either express or implied.\n    See the License for the specific language governing permissions and\n    limitations under the License.\n*/\n\ncontract TestBond is ERC3475 {\n\n\n    address public dev_address = msg.sender;\n\n\n\n    constructor () public {\n\n//        _symbols[0] = \"SASH-USD Bond\";\n\n    }\n\n//    function setBond(uint256 class, address  bank_contract)public override returns (bool) {\n//        require(msg.sender==dev_address, \"ERC659: operator unauthorized\");\n//        _bankAddress[class]=bank_contract;\n//        return true;\n//    }\n    // note: the below functiion  was orignally  defined as override but there has no inherited class\n\n//    function getNonceCreated(uint256 class) public view returns (uint256[] memory){\n//        return _nonces[class];\n//    }\n\n//    function createBondClass(uint256 class, address bank_contract, string memory bond_symbol, uint256 Fibonacci_number, uint256 Fibonacci_epoch) public returns (bool) {\n//        require(msg.sender == dev_address, \"ERC659: operator unauthorized\");\n//        _symbols[class] = bond_symbol;\n//        _issuers[class] = bank_contract;\n//        _Fibonacci_number[class] = Fibonacci_number;\n//        _Fibonacci_epoch[class] = Fibonacci_epoch;\n//        _genesis_nonce_time[class] = 0;\n//        return true;\n//    }\n}\n",
  "sourcePath": "/home/cedric/dev/www/debond/EIP-3475/contracts/TestBond.sol",
  "compiler": {
    "name": "solc",
    "version": "0.6.8+commit.0bbfe453.Emscripten.clang"
  },
  "schemaVersion": "3.4.3",
  "updatedAt": "2022-02-02T16:58:32.198Z",
  "devdoc": {
    "methods": {}
  },
  "userdoc": {
    "methods": {}
  }
}