{
  "contractName": "TestBond",
  "abi": [
    {
      "inputs": [],
      "stateMutability": "nonpayable",
      "type": "constructor"
    },
    {
      "anonymous": false,
      "inputs": [
        {
          "indexed": false,
          "internalType": "address",
          "name": "_operator",
          "type": "address"
        },
        {
          "indexed": false,
          "internalType": "address",
          "name": "_from",
          "type": "address"
        },
        {
          "indexed": false,
          "internalType": "uint256",
          "name": "class",
          "type": "uint256"
        },
        {
          "indexed": false,
          "internalType": "uint256",
          "name": "nonce",
          "type": "uint256"
        },
        {
          "indexed": false,
          "internalType": "uint256",
          "name": "_amount",
          "type": "uint256"
        }
      ],
      "name": "eventBurnBond",
      "type": "event"
    },
    {
      "anonymous": false,
      "inputs": [
        {
          "indexed": false,
          "internalType": "address",
          "name": "_operator",
          "type": "address"
        },
        {
          "indexed": false,
          "internalType": "address",
          "name": "_to",
          "type": "address"
        },
        {
          "indexed": false,
          "internalType": "uint256",
          "name": "class",
          "type": "uint256"
        },
        {
          "indexed": false,
          "internalType": "uint256",
          "name": "nonce",
          "type": "uint256"
        },
        {
          "indexed": false,
          "internalType": "uint256",
          "name": "_amount",
          "type": "uint256"
        }
      ],
      "name": "eventIssueBond",
      "type": "event"
    },
    {
      "anonymous": false,
      "inputs": [
        {
          "indexed": false,
          "internalType": "address",
          "name": "_operator",
          "type": "address"
        },
        {
          "indexed": false,
          "internalType": "address",
          "name": "_from",
          "type": "address"
        },
        {
          "indexed": false,
          "internalType": "uint256",
          "name": "class",
          "type": "uint256"
        },
        {
          "indexed": false,
          "internalType": "uint256",
          "name": "nonce",
          "type": "uint256"
        },
        {
          "indexed": false,
          "internalType": "uint256",
          "name": "_amount",
          "type": "uint256"
        }
      ],
      "name": "eventRedeemBond",
      "type": "event"
    },
    {
      "anonymous": false,
      "inputs": [
        {
          "indexed": false,
          "internalType": "address",
          "name": "_operator",
          "type": "address"
        },
        {
          "indexed": false,
          "internalType": "address",
          "name": "_from",
          "type": "address"
        },
        {
          "indexed": false,
          "internalType": "address",
          "name": "_to",
          "type": "address"
        },
        {
          "indexed": false,
          "internalType": "uint256",
          "name": "class",
          "type": "uint256"
        },
        {
          "indexed": false,
          "internalType": "uint256",
          "name": "nonce",
          "type": "uint256"
        },
        {
          "indexed": false,
          "internalType": "uint256",
          "name": "_amount",
          "type": "uint256"
        }
      ],
      "name": "eventTransferBond",
      "type": "event"
    },
    {
      "inputs": [
        {
          "internalType": "uint256",
          "name": "class",
          "type": "uint256"
        },
        {
          "internalType": "uint256",
          "name": "nonce",
          "type": "uint256"
        }
      ],
      "name": "activeSupply",
      "outputs": [
        {
          "internalType": "uint256",
          "name": "",
          "type": "uint256"
        }
      ],
      "stateMutability": "view",
      "type": "function"
    },
    {
      "inputs": [
        {
          "internalType": "address",
          "name": "account",
          "type": "address"
        },
        {
          "internalType": "uint256",
          "name": "class",
          "type": "uint256"
        },
        {
          "internalType": "uint256",
          "name": "nonce",
          "type": "uint256"
        }
      ],
      "name": "balanceOf",
      "outputs": [
        {
          "internalType": "uint256",
          "name": "",
          "type": "uint256"
        }
      ],
      "stateMutability": "view",
      "type": "function"
    },
    {
      "inputs": [
        {
          "internalType": "uint256",
          "name": "class",
          "type": "uint256"
        },
        {
          "internalType": "uint256",
          "name": "nonce",
          "type": "uint256"
        }
      ],
      "name": "bondIsRedeemable",
      "outputs": [
        {
          "internalType": "bool",
          "name": "",
          "type": "bool"
        }
      ],
      "stateMutability": "view",
      "type": "function"
    },
    {
      "inputs": [
        {
          "internalType": "address",
          "name": "_from",
          "type": "address"
        },
        {
          "internalType": "uint256[]",
          "name": "class",
          "type": "uint256[]"
        },
        {
          "internalType": "uint256[]",
          "name": "nonce",
          "type": "uint256[]"
        },
        {
          "internalType": "uint256[]",
          "name": "_amount",
          "type": "uint256[]"
        }
      ],
      "name": "burnBond",
      "outputs": [],
      "stateMutability": "nonpayable",
      "type": "function"
    },
    {
      "inputs": [
        {
          "internalType": "uint256",
          "name": "class",
          "type": "uint256"
        },
        {
          "internalType": "uint256",
          "name": "nonce",
          "type": "uint256"
        }
      ],
      "name": "burnedSupply",
      "outputs": [
        {
          "internalType": "uint256",
          "name": "",
          "type": "uint256"
        }
      ],
      "stateMutability": "view",
      "type": "function"
    },
    {
      "inputs": [],
      "name": "dev_address",
      "outputs": [
        {
          "internalType": "address",
          "name": "",
          "type": "address"
        }
      ],
      "stateMutability": "view",
      "type": "function"
    },
    {
      "inputs": [
        {
          "internalType": "uint256",
          "name": "class",
          "type": "uint256"
        },
        {
          "internalType": "uint256",
          "name": "nonce",
          "type": "uint256"
        }
      ],
      "name": "getBondInfo",
      "outputs": [
        {
          "internalType": "string",
          "name": "bondSymbol",
          "type": "string"
        },
        {
          "internalType": "uint256",
          "name": "timestamp",
          "type": "uint256"
        },
        {
          "internalType": "uint256",
          "name": "info2",
          "type": "uint256"
        },
        {
          "internalType": "uint256",
          "name": "info3",
          "type": "uint256"
        },
        {
          "internalType": "uint256",
          "name": "info4",
          "type": "uint256"
        },
        {
          "internalType": "uint256",
          "name": "info5",
          "type": "uint256"
        },
        {
          "internalType": "uint256",
          "name": "info6",
          "type": "uint256"
        }
      ],
      "stateMutability": "view",
      "type": "function"
    },
    {
      "inputs": [
        {
          "internalType": "uint256",
          "name": "class",
          "type": "uint256"
        }
      ],
      "name": "getBondSymbol",
      "outputs": [
        {
          "internalType": "string",
          "name": "",
          "type": "string"
        }
      ],
      "stateMutability": "view",
      "type": "function"
    },
    {
      "inputs": [
        {
          "internalType": "address",
          "name": "_to",
          "type": "address"
        },
        {
          "internalType": "uint256",
          "name": "class",
          "type": "uint256"
        },
        {
          "internalType": "uint256",
          "name": "_amount",
          "type": "uint256"
        }
      ],
      "name": "issueBond",
      "outputs": [],
      "stateMutability": "nonpayable",
      "type": "function"
    },
    {
      "inputs": [
        {
          "internalType": "address",
          "name": "_from",
          "type": "address"
        },
        {
          "internalType": "uint256",
          "name": "class",
          "type": "uint256"
        },
        {
          "internalType": "uint256[]",
          "name": "nonce",
          "type": "uint256[]"
        },
        {
          "internalType": "uint256[]",
          "name": "_amount",
          "type": "uint256[]"
        }
      ],
      "name": "redeemBond",
      "outputs": [],
      "stateMutability": "nonpayable",
      "type": "function"
    },
    {
      "inputs": [
        {
          "internalType": "uint256",
          "name": "class",
          "type": "uint256"
        },
        {
          "internalType": "uint256",
          "name": "nonce",
          "type": "uint256"
        }
      ],
      "name": "redeemedSupply",
      "outputs": [
        {
          "internalType": "uint256",
          "name": "",
          "type": "uint256"
        }
      ],
      "stateMutability": "view",
      "type": "function"
    },
    {
      "inputs": [
        {
          "internalType": "uint256",
          "name": "class",
          "type": "uint256"
        },
        {
          "internalType": "uint256",
          "name": "nonce",
          "type": "uint256"
        }
      ],
      "name": "totalSupply",
      "outputs": [
        {
          "internalType": "uint256",
          "name": "",
          "type": "uint256"
        }
      ],
      "stateMutability": "view",
      "type": "function"
    },
    {
      "inputs": [
        {
          "internalType": "address",
          "name": "_from",
          "type": "address"
        },
        {
          "internalType": "address",
          "name": "_to",
          "type": "address"
        },
        {
          "internalType": "uint256[]",
          "name": "class",
          "type": "uint256[]"
        },
        {
          "internalType": "uint256[]",
          "name": "nonce",
          "type": "uint256[]"
        },
        {
          "internalType": "uint256[]",
          "name": "_amount",
          "type": "uint256[]"
        }
      ],
      "name": "transferBond",
      "outputs": [],
      "stateMutability": "nonpayable",
      "type": "function"
    },
    {
      "inputs": [
        {
          "internalType": "uint256",
          "name": "class",
          "type": "uint256"
        }
      ],
      "name": "getNonceCreated",
      "outputs": [
        {
          "internalType": "uint256[]",
          "name": "",
          "type": "uint256[]"
        }
      ],
      "stateMutability": "view",
      "type": "function"
    }
  ],
  "bytecode": "0x608060405233600c60006101000a81548173ffffffffffffffffffffffffffffffffffffffff021916908373ffffffffffffffffffffffffffffffffffffffff1602179055503480156200005257600080fd5b50600860096000808152602001908152602001600020819055506001600a6000808152602001908152602001600020819055506000600b6000808152602001908152602001600020819055506040518060400160405280600d81526020017f534153482d55534420426f6e6400000000000000000000000000000000000000815250600660008081526020019081526020016000209080519060200190620000fc92919062000103565b50620001b2565b828054600181600116156101000203166002900490600052602060002090601f016020900481019282601f106200014657805160ff191683800117855562000177565b8280016001018555821562000177579182015b828111156200017657825182559160200191906001019062000159565b5b5090506200018691906200018a565b5090565b620001af91905b80821115620001ab57600081600090555060010162000191565b5090565b90565b61249a80620001c26000396000f3fe608060405234801561001057600080fd5b50600436106100ea5760003560e01c80637abb8efb1161008c578063bc3c19f711610066578063bc3c19f714610744578063c2458d6b14610790578063ccea7b86146107dc578063de26ffad14610828576100ea565b80637abb8efb146105d35780639e0456381461061d578063b15edbe5146106f8576100ea565b80634be80cb9116100c85780634be80cb9146103415780635825d8fd146103e8578063675981b71461052b57806371d68ce814610583576100ea565b80632d760d57146100ef5780632ddea62b1461015b5780632e513c06146102be575b600080fd5b6101456004803603606081101561010557600080fd5b81019080803573ffffffffffffffffffffffffffffffffffffffff1690602001909291908035906020019092919080359060200190929190505050610920565b6040518082815260200191505060405180910390f35b6102bc600480360360a081101561017157600080fd5b81019080803573ffffffffffffffffffffffffffffffffffffffff169060200190929190803573ffffffffffffffffffffffffffffffffffffffff169060200190929190803590602001906401000000008111156101ce57600080fd5b8201836020820111156101e057600080fd5b8035906020019184602083028401116401000000008311171561020257600080fd5b90919293919293908035906020019064010000000081111561022357600080fd5b82018360208201111561023557600080fd5b8035906020019184602083028401116401000000008311171561025757600080fd5b90919293919293908035906020019064010000000081111561027857600080fd5b82018360208201111561028a57600080fd5b803590602001918460208302840111640100000000831117156102ac57600080fd5b9091929391929390505050610a11565b005b6102ea600480360360208110156102d457600080fd5b8101908080359060200190929190505050610d17565b6040518080602001828103825283818151815260200191508051906020019060200280838360005b8381101561032d578082015181840152602081019050610312565b505050509050019250505060405180910390f35b61036d6004803603602081101561035757600080fd5b8101908080359060200190929190505050610d82565b6040518080602001828103825283818151815260200191508051906020019080838360005b838110156103ad578082015181840152602081019050610392565b50505050905090810190601f1680156103da5780820380516001836020036101000a031916815260200191505b509250505060405180910390f35b610529600480360360808110156103fe57600080fd5b81019080803573ffffffffffffffffffffffffffffffffffffffff1690602001909291908035906020019064010000000081111561043b57600080fd5b82018360208201111561044d57600080fd5b8035906020019184602083028401116401000000008311171561046f57600080fd5b90919293919293908035906020019064010000000081111561049057600080fd5b8201836020820111156104a257600080fd5b803590602001918460208302840111640100000000831117156104c457600080fd5b9091929391929390803590602001906401000000008111156104e557600080fd5b8201836020820111156104f757600080fd5b8035906020019184602083028401116401000000008311171561051957600080fd5b9091929391929390505050610e37565b005b6105816004803603606081101561054157600080fd5b81019080803573ffffffffffffffffffffffffffffffffffffffff16906020019092919080359060200190929190803590602001909291905050506110b5565b005b6105b96004803603604081101561059957600080fd5b810190808035906020019092919080359060200190929190505050611360565b604051808215151515815260200191505060405180910390f35b6105db6114b5565b604051808273ffffffffffffffffffffffffffffffffffffffff1673ffffffffffffffffffffffffffffffffffffffff16815260200191505060405180910390f35b6106536004803603604081101561063357600080fd5b8101908080359060200190929190803590602001909291905050506114db565b6040518080602001888152602001878152602001868152602001858152602001848152602001838152602001828103825289818151815260200191508051906020019080838360005b838110156106b757808201518184015260208101905061069c565b50505050905090810190601f1680156106e45780820380516001836020036101000a031916815260200191505b509850505050505050505060405180910390f35b61072e6004803603604081101561070e57600080fd5b8101908080359060200190929190803590602001909291905050506116f6565b6040518082815260200191505060405180910390f35b61077a6004803603604081101561075a57600080fd5b810190808035906020019092919080359060200190929190505050611725565b6040518082815260200191505060405180910390f35b6107c6600480360360408110156107a657600080fd5b810190808035906020019092919080359060200190929190505050611754565b6040518082815260200191505060405180910390f35b610812600480360360408110156107f257600080fd5b8101908080359060200190929190803590602001909291905050506117cf565b6040518082815260200191505060405180910390f35b61091e6004803603608081101561083e57600080fd5b81019080803573ffffffffffffffffffffffffffffffffffffffff169060200190929190803590602001909291908035906020019064010000000081111561088557600080fd5b82018360208201111561089757600080fd5b803590602001918460208302840111640100000000831117156108b957600080fd5b9091929391929390803590602001906401000000008111156108da57600080fd5b8201836020820111156108ec57600080fd5b8035906020019184602083028401116401000000008311171561090e57600080fd5b90919293919293905050506117fe565b005b60008073ffffffffffffffffffffffffffffffffffffffff168473ffffffffffffffffffffffffffffffffffffffff1614156109a7576040517f08c379a000000000000000000000000000000000000000000000000000000000815260040180806020018281038252602a815260200180612418602a913960400191505060405180910390fd5b6000808573ffffffffffffffffffffffffffffffffffffffff1673ffffffffffffffffffffffffffffffffffffffff168152602001908152602001600020600084815260200190815260200160002060008381526020019081526020016000205490509392505050565b60008090505b84849050811015610d0c5760056000888884818110610a3257fe5b90506020020135815260200190815260200160002060009054906101000a900473ffffffffffffffffffffffffffffffffffffffff1673ffffffffffffffffffffffffffffffffffffffff163373ffffffffffffffffffffffffffffffffffffffff161480610acc57508873ffffffffffffffffffffffffffffffffffffffff163373ffffffffffffffffffffffffffffffffffffffff16145b610b3e576040517f08c379a000000000000000000000000000000000000000000000000000000000815260040180806020018281038252601d8152602001807f4552433635393a206f70657261746f7220756e617574686f72697a656400000081525060200191505060405180910390fd5b828282818110610b4a57fe5b905060200201356000808b73ffffffffffffffffffffffffffffffffffffffff1673ffffffffffffffffffffffffffffffffffffffff1681526020019081526020016000206000898985818110610b9d57fe5b9050602002013581526020019081526020016000206000878785818110610bc057fe5b905060200201358152602001908152602001600020541015610c2d576040517f08c379a00000000000000000000000000000000000000000000000000000000081526004018080602001828103825260238152602001806124426023913960400191505060405180910390fd5b600073ffffffffffffffffffffffffffffffffffffffff168873ffffffffffffffffffffffffffffffffffffffff161415610cb3576040517f08c379a000000000000000000000000000000000000000000000000000000000815260040180806020018281038252603e8152602001806123b4603e913960400191505060405180910390fd5b610cf68989898985818110610cc457fe5b90506020020135888886818110610cd757fe5b90506020020135878787818110610cea57fe5b90506020020135611abd565b610cff57600080fd5b8080600101915050610a17565b505050505050505050565b606060086000838152602001908152602001600020805480602002602001604051908101604052809291908181526020018280548015610d7657602002820191906000526020600020905b815481526020019060010190808311610d62575b50505050509050919050565b6060600660008381526020019081526020016000208054600181600116156101000203166002900480601f016020809104026020016040519081016040528092919081815260200182805460018160011615610100020316600290048015610e2b5780601f10610e0057610100808354040283529160200191610e2b565b820191906000526020600020905b815481529060010190602001808311610e0e57829003601f168201915b50505050509050919050565b60008090505b848490508110156110ab5760056000888884818110610e5857fe5b90506020020135815260200190815260200160002060009054906101000a900473ffffffffffffffffffffffffffffffffffffffff1673ffffffffffffffffffffffffffffffffffffffff163373ffffffffffffffffffffffffffffffffffffffff161480610ef257508773ffffffffffffffffffffffffffffffffffffffff163373ffffffffffffffffffffffffffffffffffffffff16145b610f64576040517f08c379a000000000000000000000000000000000000000000000000000000000815260040180806020018281038252601e8152602001807f455243333437353a206f70657261746f7220756e617574686f72697a6564000081525060200191505060405180910390fd5b828282818110610f7057fe5b905060200201356000808a73ffffffffffffffffffffffffffffffffffffffff1673ffffffffffffffffffffffffffffffffffffffff1681526020019081526020016000206000898985818110610fc357fe5b9050602002013581526020019081526020016000206000878785818110610fe657fe5b905060200201358152602001908152602001600020541015611053576040517f08c379a00000000000000000000000000000000000000000000000000000000081526004018080602001828103825260238152602001806123916023913960400191505060405180910390fd5b6110958888888481811061106357fe5b9050602002013587878581811061107657fe5b9050602002013586868681811061108957fe5b90506020020135611c8b565b61109e57600080fd5b8080600101915050610e3d565b5050505050505050565b600073ffffffffffffffffffffffffffffffffffffffff168373ffffffffffffffffffffffffffffffffffffffff16141561113b576040517f08c379a00000000000000000000000000000000000000000000000000000000081526004018080602001828103825260268152602001806123f26026913960400191505060405180910390fd5b60648110156111b2576040517f08c379a00000000000000000000000000000000000000000000000000000000081526004018080602001828103825260168152602001807f4552433635393a20696e76616c696420616d6f756e740000000000000000000081525060200191505060405180910390fd5b6000600b600084815260200190815260200160002054141561120557600a60008381526020019081526020016000205442816111ea57fe5b064203600b6000848152602001908152602001600020819055505b6000600a600084815260200190815260200160002054600b60008581526020019081526020016000205442038161123857fe5b04905060006001905060006002905060008060008090505b60096000898152602001908152602001600020548110156112ae57600081141561127d576001925061129c565b600181141561128f576002925061129b565b83850192508394508293505b5b82820191508080600101915050611250565b50806103e88702816112bc57fe5b04905060009150600193506002925060008090505b60096000898152602001908152602001600020548110156113555760008114156112fe576001925061131d565b6001811415611310576002925061131c565b83850192508394508293505b5b6001151561133c8a8a868a016103e88888028161133657fe5b04611de8565b15151461134857600080fd5b80806001019150506112d1565b505050505050505050565b6000426004600085815260200190815260200160002060008481526020019081526020016000206000600181526020019081526020016000205410156114aa5760008060008090505b6007600087815260200190815260200160002054811161141f576003600087815260200190815260200160002060008281526020019081526020016000205460016000888152602001908152602001600020600083815260200190815260200160002054018301925080806001019150506113a9565b5060008090505b84811161148c57600260036000888152602001908152602001600020600083815260200190815260200160002054600160008981526020019081526020016000206000848152602001908152602001600020540102820191508080600101915050611426565b5080821061149f576001925050506114af565b6000925050506114af565b600090505b92915050565b600c60009054906101000a900473ffffffffffffffffffffffffffffffffffffffff1681565b6060600080600080600080600660008a81526020019081526020016000208054600181600116156101000203166002900480601f01602080910402602001604051908101604052809291908181526020018280546001816001161561010002031660029004801561158d5780601f106115625761010080835404028352916020019161158d565b820191906000526020600020905b81548152906001019060200180831161157057829003601f168201915b50505050509650600460008a81526020019081526020016000206000898152602001908152602001600020600060018152602001908152602001600020549550600460008a81526020019081526020016000206000898152602001908152602001600020600060028152602001908152602001600020549450600460008a81526020019081526020016000206000898152602001908152602001600020600060038152602001908152602001600020549350600460008a81526020019081526020016000206000898152602001908152602001600020600060048152602001908152602001600020549250600460008a81526020019081526020016000206000898152602001908152602001600020600060058152602001908152602001600020549150600460008a8152602001908152602001600020600089815260200190815260200160002060006006815260200190815260200160002054905092959891949750929550565b600060016000848152602001908152602001600020600083815260200190815260200160002054905092915050565b600060026000848152602001908152602001600020600083815260200190815260200160002054905092915050565b60006003600084815260200190815260200160002060008381526020019081526020016000205460026000858152602001908152602001600020600084815260200190815260200160002054600160008681526020019081526020016000206000858152602001908152602001600020540101905092915050565b600060036000848152602001908152602001600020600083815260200190815260200160002054905092915050565b6005600086815260200190815260200160002060009054906101000a900473ffffffffffffffffffffffffffffffffffffffff1673ffffffffffffffffffffffffffffffffffffffff163373ffffffffffffffffffffffffffffffffffffffff16148061189657508573ffffffffffffffffffffffffffffffffffffffff163373ffffffffffffffffffffffffffffffffffffffff16145b611908576040517f08c379a000000000000000000000000000000000000000000000000000000000815260040180806020018281038252601d8152602001807f4552433635393a206f70657261746f7220756e617574686f72697a656400000081525060200191505060405180910390fd5b60008090505b84849050811015611ab45782828281811061192557fe5b905060200201356000808973ffffffffffffffffffffffffffffffffffffffff1673ffffffffffffffffffffffffffffffffffffffff1681526020019081526020016000206000888152602001908152602001600020600087878581811061198957fe5b9050602002013581526020019081526020016000205410156119f6576040517f08c379a000000000000000000000000000000000000000000000000000000000815260040180806020018281038252602681526020018061236b6026913960400191505060405180910390fd5b60011515611a1687878785818110611a0a57fe5b90506020020135611360565b151514611a6e576040517f08c379a00000000000000000000000000000000000000000000000000000000081526004018080602001828103825260348152602001806123376034913960400191505060405180910390fd5b611a9e8787878785818110611a7f57fe5b90506020020135868686818110611a9257fe5b90506020020135611f7f565b611aa757600080fd5b808060010191505061190e565b50505050505050565b6000816000808873ffffffffffffffffffffffffffffffffffffffff1673ffffffffffffffffffffffffffffffffffffffff1681526020019081526020016000206000868152602001908152602001600020600085815260200190815260200160002060008282540392505081905550816000808773ffffffffffffffffffffffffffffffffffffffff1673ffffffffffffffffffffffffffffffffffffffff16815260200190815260200160002060008681526020019081526020016000206000858152602001908152602001600020600082825401925050819055507f9f32b8ffa303549658d2435755556a7c295c2c6ed827f75256899319ffdfa70b338787878787604051808773ffffffffffffffffffffffffffffffffffffffff1673ffffffffffffffffffffffffffffffffffffffff1681526020018673ffffffffffffffffffffffffffffffffffffffff1673ffffffffffffffffffffffffffffffffffffffff1681526020018573ffffffffffffffffffffffffffffffffffffffff1673ffffffffffffffffffffffffffffffffffffffff168152602001848152602001838152602001828152602001965050505050505060405180910390a16001905095945050505050565b6000816000808773ffffffffffffffffffffffffffffffffffffffff1673ffffffffffffffffffffffffffffffffffffffff168152602001908152602001600020600086815260200190815260200160002060008581526020019081526020016000206000828254039250508190555081600260008681526020019081526020016000206000858152602001908152602001600020600082825401925050819055507fec63035e10dd1c8025fbe8d3c8baf46760e1ff9cdc8461ca7cbaf7fd3394f9053386868686604051808673ffffffffffffffffffffffffffffffffffffffff1673ffffffffffffffffffffffffffffffffffffffff1681526020018573ffffffffffffffffffffffffffffffffffffffff1673ffffffffffffffffffffffffffffffffffffffff1681526020018481526020018381526020018281526020019550505050505060405180910390a160019050949350505050565b600080611df58585611754565b1415611e1057611e078585858561210e565b60019050611f77565b816000808773ffffffffffffffffffffffffffffffffffffffff1673ffffffffffffffffffffffffffffffffffffffff168152602001908152602001600020600086815260200190815260200160002060008581526020019081526020016000206000828254019250508190555081600160008681526020019081526020016000206000858152602001908152602001600020600082825401925050819055507f5d57ae351fb21d62ec3f02e7813257f8d955a4868bb8e9f3f8fbb3aa9faa4035338686600760008981526020019081526020016000205486604051808673ffffffffffffffffffffffffffffffffffffffff1673ffffffffffffffffffffffffffffffffffffffff1681526020018573ffffffffffffffffffffffffffffffffffffffff1673ffffffffffffffffffffffffffffffffffffffff1681526020018481526020018381526020018281526020019550505050505060405180910390a1600190505b949350505050565b6000816000808773ffffffffffffffffffffffffffffffffffffffff1673ffffffffffffffffffffffffffffffffffffffff1681526020019081526020016000206000868152602001908152602001600020600085815260200190815260200160002060008282540392505081905550816001600086815260200190815260200160002060008581526020019081526020016000206000828254039250508190555081600360008681526020019081526020016000206000858152602001908152602001600020600082825401925050819055507f83cf0c7a97f83a855520ca4249d607c889ab1d2ceb6f65e993269001debf03a83386868686604051808673ffffffffffffffffffffffffffffffffffffffff1673ffffffffffffffffffffffffffffffffffffffff1681526020018573ffffffffffffffffffffffffffffffffffffffff1673ffffffffffffffffffffffffffffffffffffffff1681526020018481526020018381526020018281526020019550505050505060405180910390a160019050949350505050565b8160076000858152602001908152602001600020541015612142578160076000858152602001908152602001600020819055505b60086000848152602001908152602001600020829080600181540180825580915050600190039060005260206000200160009091909190915055600a6000848152602001908152602001600020548202600b6000858152602001908152602001600020540160046000858152602001908152602001600020600084815260200190815260200160002060006001815260200190815260200160002081905550806000808673ffffffffffffffffffffffffffffffffffffffff1673ffffffffffffffffffffffffffffffffffffffff168152602001908152602001600020600085815260200190815260200160002060008481526020019081526020016000206000828254019250508190555080600160008581526020019081526020016000206000848152602001908152602001600020600082825401925050819055507f5d57ae351fb21d62ec3f02e7813257f8d955a4868bb8e9f3f8fbb3aa9faa40353385858585604051808673ffffffffffffffffffffffffffffffffffffffff1673ffffffffffffffffffffffffffffffffffffffff1681526020018573ffffffffffffffffffffffffffffffffffffffff1673ffffffffffffffffffffffffffffffffffffffff1681526020018481526020018381526020018281526020019550505050505060405180910390a15050505056fe4552433635393a2063616e27742072656465656d20626f6e64206265666f7265206974277320726564656d7074696f6e206461794552433635393a206e6f7420656e6f75676820626f6e6420666f7220726564656d7074696f6e455243333437353a20696e73756666696369656e7420626f6e647320746f206275726e4552433635393a2063616e742774207472616e7366657220746f207a65726f20626f6e642c2075736520276275726e426f6e6428292720696e73746561644552433635393a20697373756520626f6e6420746f20746865207a65726f20616464726573734552433635393a2062616c616e636520717565727920666f7220746865207a65726f20616464726573734552433635393a206e6f7420656e6f75676820626f6e6420746f207472616e73666572a264697066735822122066973d4b597f561e2788bd99dea502559df34bc2fd6868b49422537d094839d664736f6c63430006080033",
  "immutableReferences": {},
  "source": "pragma solidity ^0.6.2;\n\nimport \"./util/SafeMath.sol\";\nimport \"./util/ERC3475.sol\";\n// SPDX-License-Identifier: apache 2.0\n/*\n    Copyright 2020 Sigmoid Foundation <info@SGM.finance>\n\n    Licensed under the Apache License, Version 2.0 (the \"License\");\n    you may not use this file except in compliance with the License.\n    You may obtain a copy of the License at\n\n    http://www.apache.org/licenses/LICENSE-2.0\n\n    Unless required by applicable law or agreed to in writing, software\n    distributed under the License is distributed on an \"AS IS\" BASIS,\n    WITHOUT WARRANTIES OR CONDITIONS OF ANY KIND, either express or implied.\n    See the License for the specific language governing permissions and\n    limitations under the License.\n*/\n\ncontract TestBond is ERC3475 {\n\n\n    address public dev_address = msg.sender;\n\n\n\n    constructor () public {\n\n        _symbols[0] = \"SASH-USD Bond\";\n\n    }\n\n//    function setBond(uint256 class, address  bank_contract)public override returns (bool) {\n//        require(msg.sender==dev_address, \"ERC659: operator unauthorized\");\n//        _bankAddress[class]=bank_contract;\n//        return true;\n//    }\n\n    function getNonceCreated(uint256 class) public view returns (uint256[] memory){\n        return _nonces[class];\n    }\n\n//    function createBondClass(uint256 class, address bank_contract, string memory bond_symbol, uint256 Fibonacci_number, uint256 Fibonacci_epoch) public returns (bool) {\n//        require(msg.sender == dev_address, \"ERC659: operator unauthorized\");\n//        _symbols[class] = bond_symbol;\n//        _issuers[class] = bank_contract;\n//        _Fibonacci_number[class] = Fibonacci_number;\n//        _Fibonacci_epoch[class] = Fibonacci_epoch;\n//        _genesis_nonce_time[class] = 0;\n//        return true;\n//    }\n}\n",
  "sourcePath": "/home/cedric/dev/www/debond/EIP-3475/contracts/TestBond.sol",
  "compiler": {
    "name": "solc",
    "version": "0.6.8+commit.0bbfe453.Emscripten.clang"
  },
  "schemaVersion": "3.4.4",
  "updatedAt": "2022-01-28T10:48:02.816Z",
  "devdoc": {
    "methods": {}
  },
  "userdoc": {
    "methods": {}
  }
}