{
  "contractName": "TestBond",
  "abi": [
    {
      "inputs": [],
      "stateMutability": "nonpayable",
      "type": "constructor"
    },
    {
      "anonymous": false,
      "inputs": [
        {
          "indexed": false,
          "internalType": "address",
          "name": "_operator",
          "type": "address"
        },
        {
          "indexed": false,
          "internalType": "address",
          "name": "_from",
          "type": "address"
        },
        {
          "indexed": false,
          "internalType": "uint256",
          "name": "class",
          "type": "uint256"
        },
        {
          "indexed": false,
          "internalType": "uint256",
          "name": "nonce",
          "type": "uint256"
        },
        {
          "indexed": false,
          "internalType": "uint256",
          "name": "_amount",
          "type": "uint256"
        }
      ],
      "name": "eventBurnBond",
      "type": "event"
    },
    {
      "anonymous": false,
      "inputs": [
        {
          "indexed": false,
          "internalType": "address",
          "name": "_operator",
          "type": "address"
        },
        {
          "indexed": false,
          "internalType": "address",
          "name": "_to",
          "type": "address"
        },
        {
          "indexed": false,
          "internalType": "uint256",
          "name": "class",
          "type": "uint256"
        },
        {
          "indexed": false,
          "internalType": "uint256",
          "name": "nonce",
          "type": "uint256"
        },
        {
          "indexed": false,
          "internalType": "uint256",
          "name": "_amount",
          "type": "uint256"
        }
      ],
      "name": "eventIssueBond",
      "type": "event"
    },
    {
      "anonymous": false,
      "inputs": [
        {
          "indexed": false,
          "internalType": "address",
          "name": "_operator",
          "type": "address"
        },
        {
          "indexed": false,
          "internalType": "address",
          "name": "_from",
          "type": "address"
        },
        {
          "indexed": false,
          "internalType": "uint256",
          "name": "class",
          "type": "uint256"
        },
        {
          "indexed": false,
          "internalType": "uint256",
          "name": "nonce",
          "type": "uint256"
        },
        {
          "indexed": false,
          "internalType": "uint256",
          "name": "_amount",
          "type": "uint256"
        }
      ],
      "name": "eventRedeemBond",
      "type": "event"
    },
    {
      "anonymous": false,
      "inputs": [
        {
          "indexed": false,
          "internalType": "address",
          "name": "_operator",
          "type": "address"
        },
        {
          "indexed": false,
          "internalType": "address",
          "name": "_from",
          "type": "address"
        },
        {
          "indexed": false,
          "internalType": "address",
          "name": "_to",
          "type": "address"
        },
        {
          "indexed": false,
          "internalType": "uint256",
          "name": "class",
          "type": "uint256"
        },
        {
          "indexed": false,
          "internalType": "uint256",
          "name": "nonce",
          "type": "uint256"
        },
        {
          "indexed": false,
          "internalType": "uint256",
          "name": "_amount",
          "type": "uint256"
        }
      ],
      "name": "eventTransferBond",
      "type": "event"
    },
    {
      "inputs": [
        {
          "internalType": "uint256",
          "name": "",
          "type": "uint256"
        }
      ],
      "name": "_Fibonacci_epoch",
      "outputs": [
        {
          "internalType": "uint256",
          "name": "",
          "type": "uint256"
        }
      ],
      "stateMutability": "view",
      "type": "function"
    },
    {
      "inputs": [
        {
          "internalType": "uint256",
          "name": "",
          "type": "uint256"
        }
      ],
      "name": "_Fibonacci_number",
      "outputs": [
        {
          "internalType": "uint256",
          "name": "",
          "type": "uint256"
        }
      ],
      "stateMutability": "view",
      "type": "function"
    },
    {
      "inputs": [
        {
          "internalType": "uint256",
          "name": "",
          "type": "uint256"
        }
      ],
      "name": "_Symbol",
      "outputs": [
        {
          "internalType": "string",
          "name": "",
          "type": "string"
        }
      ],
      "stateMutability": "view",
      "type": "function"
    },
    {
      "inputs": [
        {
          "internalType": "uint256",
          "name": "",
          "type": "uint256"
        },
        {
          "internalType": "uint256",
          "name": "",
          "type": "uint256"
        }
      ],
      "name": "_activeSupply",
      "outputs": [
        {
          "internalType": "uint256",
          "name": "",
          "type": "uint256"
        }
      ],
      "stateMutability": "view",
      "type": "function"
    },
    {
      "inputs": [
        {
          "internalType": "address",
          "name": "",
          "type": "address"
        },
        {
          "internalType": "uint256",
          "name": "",
          "type": "uint256"
        },
        {
          "internalType": "uint256",
          "name": "",
          "type": "uint256"
        }
      ],
      "name": "_balances",
      "outputs": [
        {
          "internalType": "uint256",
          "name": "",
          "type": "uint256"
        }
      ],
      "stateMutability": "view",
      "type": "function"
    },
    {
      "inputs": [
        {
          "internalType": "uint256",
          "name": "",
          "type": "uint256"
        }
      ],
      "name": "_bankAddress",
      "outputs": [
        {
          "internalType": "address",
          "name": "",
          "type": "address"
        }
      ],
      "stateMutability": "view",
      "type": "function"
    },
    {
      "inputs": [
        {
          "internalType": "uint256",
          "name": "",
          "type": "uint256"
        },
        {
          "internalType": "uint256",
          "name": "",
          "type": "uint256"
        }
      ],
      "name": "_burnedSupply",
      "outputs": [
        {
          "internalType": "uint256",
          "name": "",
          "type": "uint256"
        }
      ],
      "stateMutability": "view",
      "type": "function"
    },
    {
      "inputs": [
        {
          "internalType": "uint256",
          "name": "",
          "type": "uint256"
        }
      ],
      "name": "_genesis_nonce_time",
      "outputs": [
        {
          "internalType": "uint256",
          "name": "",
          "type": "uint256"
        }
      ],
      "stateMutability": "view",
      "type": "function"
    },
    {
      "inputs": [
        {
          "internalType": "uint256",
          "name": "",
          "type": "uint256"
        },
        {
          "internalType": "uint256",
          "name": "",
          "type": "uint256"
        },
        {
          "internalType": "uint256",
          "name": "",
          "type": "uint256"
        }
      ],
      "name": "_info",
      "outputs": [
        {
          "internalType": "uint256",
          "name": "",
          "type": "uint256"
        }
      ],
      "stateMutability": "view",
      "type": "function"
    },
    {
      "inputs": [
        {
          "internalType": "uint256",
          "name": "",
          "type": "uint256"
        },
        {
          "internalType": "uint256",
          "name": "",
          "type": "uint256"
        }
      ],
      "name": "_nonceCreated",
      "outputs": [
        {
          "internalType": "uint256",
          "name": "",
          "type": "uint256"
        }
      ],
      "stateMutability": "view",
      "type": "function"
    },
    {
      "inputs": [
        {
          "internalType": "uint256",
          "name": "",
          "type": "uint256"
        },
        {
          "internalType": "uint256",
          "name": "",
          "type": "uint256"
        }
      ],
      "name": "_redeemedSupply",
      "outputs": [
        {
          "internalType": "uint256",
          "name": "",
          "type": "uint256"
        }
      ],
      "stateMutability": "view",
      "type": "function"
    },
    {
      "inputs": [],
      "name": "dev_address",
      "outputs": [
        {
          "internalType": "address",
          "name": "",
          "type": "address"
        }
      ],
      "stateMutability": "view",
      "type": "function"
    },
    {
      "inputs": [
        {
          "internalType": "uint256",
          "name": "",
          "type": "uint256"
        }
      ],
      "name": "last_bond_nonce",
      "outputs": [
        {
          "internalType": "uint256",
          "name": "",
          "type": "uint256"
        }
      ],
      "stateMutability": "view",
      "type": "function"
    },
    {
      "inputs": [
        {
          "internalType": "uint256",
          "name": "class",
          "type": "uint256"
        },
        {
          "internalType": "address",
          "name": "bank_contract",
          "type": "address"
        }
      ],
      "name": "setBond",
      "outputs": [
        {
          "internalType": "bool",
          "name": "",
          "type": "bool"
        }
      ],
      "stateMutability": "nonpayable",
      "type": "function"
    },
    {
      "inputs": [
        {
          "internalType": "uint256",
          "name": "class",
          "type": "uint256"
        }
      ],
      "name": "getNonceCreated",
      "outputs": [
        {
          "internalType": "uint256[]",
          "name": "",
          "type": "uint256[]"
        }
      ],
      "stateMutability": "view",
      "type": "function"
    },
    {
      "inputs": [
        {
          "internalType": "uint256",
          "name": "class",
          "type": "uint256"
        },
        {
          "internalType": "address",
          "name": "bank_contract",
          "type": "address"
        },
        {
          "internalType": "string",
          "name": "bond_symbol",
          "type": "string"
        },
        {
          "internalType": "uint256",
          "name": "Fibonacci_number",
          "type": "uint256"
        },
        {
          "internalType": "uint256",
          "name": "Fibonacci_epoch",
          "type": "uint256"
        }
      ],
      "name": "createBondClass",
      "outputs": [
        {
          "internalType": "bool",
          "name": "",
          "type": "bool"
        }
      ],
      "stateMutability": "nonpayable",
      "type": "function"
    },
    {
      "inputs": [
        {
          "internalType": "uint256",
          "name": "class",
          "type": "uint256"
        },
        {
          "internalType": "uint256",
          "name": "nonce",
          "type": "uint256"
        }
      ],
      "name": "totalSupply",
      "outputs": [
        {
          "internalType": "uint256",
          "name": "",
          "type": "uint256"
        }
      ],
      "stateMutability": "view",
      "type": "function"
    },
    {
      "inputs": [
        {
          "internalType": "uint256",
          "name": "class",
          "type": "uint256"
        },
        {
          "internalType": "uint256",
          "name": "nonce",
          "type": "uint256"
        }
      ],
      "name": "activeSupply",
      "outputs": [
        {
          "internalType": "uint256",
          "name": "",
          "type": "uint256"
        }
      ],
      "stateMutability": "view",
      "type": "function"
    },
    {
      "inputs": [
        {
          "internalType": "uint256",
          "name": "class",
          "type": "uint256"
        },
        {
          "internalType": "uint256",
          "name": "nonce",
          "type": "uint256"
        }
      ],
      "name": "burnedSupply",
      "outputs": [
        {
          "internalType": "uint256",
          "name": "",
          "type": "uint256"
        }
      ],
      "stateMutability": "view",
      "type": "function"
    },
    {
      "inputs": [
        {
          "internalType": "uint256",
          "name": "class",
          "type": "uint256"
        },
        {
          "internalType": "uint256",
          "name": "nonce",
          "type": "uint256"
        }
      ],
      "name": "redeemedSupply",
      "outputs": [
        {
          "internalType": "uint256",
          "name": "",
          "type": "uint256"
        }
      ],
      "stateMutability": "view",
      "type": "function"
    },
    {
      "inputs": [
        {
          "internalType": "address",
          "name": "account",
          "type": "address"
        },
        {
          "internalType": "uint256",
          "name": "class",
          "type": "uint256"
        },
        {
          "internalType": "uint256",
          "name": "nonce",
          "type": "uint256"
        }
      ],
      "name": "balanceOf",
      "outputs": [
        {
          "internalType": "uint256",
          "name": "",
          "type": "uint256"
        }
      ],
      "stateMutability": "view",
      "type": "function"
    },
    {
      "inputs": [
        {
          "internalType": "uint256",
          "name": "class",
          "type": "uint256"
        }
      ],
      "name": "getBondSymbol",
      "outputs": [
        {
          "internalType": "string",
          "name": "",
          "type": "string"
        }
      ],
      "stateMutability": "view",
      "type": "function"
    },
    {
      "inputs": [
        {
          "internalType": "uint256",
          "name": "class",
          "type": "uint256"
        },
        {
          "internalType": "uint256",
          "name": "nonce",
          "type": "uint256"
        }
      ],
      "name": "getBondInfo",
      "outputs": [
        {
          "internalType": "string",
          "name": "BondSymbol",
          "type": "string"
        },
        {
          "internalType": "uint256",
          "name": "timestamp",
          "type": "uint256"
        },
        {
          "internalType": "uint256",
          "name": "info2",
          "type": "uint256"
        },
        {
          "internalType": "uint256",
          "name": "info3",
          "type": "uint256"
        },
        {
          "internalType": "uint256",
          "name": "info4",
          "type": "uint256"
        },
        {
          "internalType": "uint256",
          "name": "info5",
          "type": "uint256"
        },
        {
          "internalType": "uint256",
          "name": "info6",
          "type": "uint256"
        }
      ],
      "stateMutability": "view",
      "type": "function"
    },
    {
      "inputs": [
        {
          "internalType": "uint256",
          "name": "class",
          "type": "uint256"
        },
        {
          "internalType": "uint256",
          "name": "nonce",
          "type": "uint256"
        }
      ],
      "name": "bondIsRedeemable",
      "outputs": [
        {
          "internalType": "bool",
          "name": "",
          "type": "bool"
        }
      ],
      "stateMutability": "view",
      "type": "function"
    },
    {
      "inputs": [
        {
          "internalType": "address",
          "name": "_to",
          "type": "address"
        },
        {
          "internalType": "uint256",
          "name": "class",
          "type": "uint256"
        },
        {
          "internalType": "uint256",
          "name": "_amount",
          "type": "uint256"
        }
      ],
      "name": "issueBond",
      "outputs": [
        {
          "internalType": "bool",
          "name": "",
          "type": "bool"
        }
      ],
      "stateMutability": "nonpayable",
      "type": "function"
    },
    {
      "inputs": [
        {
          "internalType": "address",
          "name": "_from",
          "type": "address"
        },
        {
          "internalType": "uint256",
          "name": "class",
          "type": "uint256"
        },
        {
          "internalType": "uint256[]",
          "name": "nonce",
          "type": "uint256[]"
        },
        {
          "internalType": "uint256[]",
          "name": "_amount",
          "type": "uint256[]"
        }
      ],
      "name": "redeemBond",
      "outputs": [
        {
          "internalType": "bool",
          "name": "",
          "type": "bool"
        }
      ],
      "stateMutability": "nonpayable",
      "type": "function"
    },
    {
      "inputs": [
        {
          "internalType": "address",
          "name": "_from",
          "type": "address"
        },
        {
          "internalType": "address",
          "name": "_to",
          "type": "address"
        },
        {
          "internalType": "uint256[]",
          "name": "class",
          "type": "uint256[]"
        },
        {
          "internalType": "uint256[]",
          "name": "nonce",
          "type": "uint256[]"
        },
        {
          "internalType": "uint256[]",
          "name": "_amount",
          "type": "uint256[]"
        }
      ],
      "name": "transferBond",
      "outputs": [
        {
          "internalType": "bool",
          "name": "",
          "type": "bool"
        }
      ],
      "stateMutability": "nonpayable",
      "type": "function"
    },
    {
      "inputs": [
        {
          "internalType": "address",
          "name": "_from",
          "type": "address"
        },
        {
          "internalType": "uint256[]",
          "name": "class",
          "type": "uint256[]"
        },
        {
          "internalType": "uint256[]",
          "name": "nonce",
          "type": "uint256[]"
        },
        {
          "internalType": "uint256[]",
          "name": "_amount",
          "type": "uint256[]"
        }
      ],
      "name": "burnBond",
      "outputs": [
        {
          "internalType": "bool",
          "name": "",
          "type": "bool"
        }
      ],
      "stateMutability": "nonpayable",
      "type": "function"
    }
  ],
  "bytecode": "0x608060405233600c60006101000a81548173ffffffffffffffffffffffffffffffffffffffff021916908373ffffffffffffffffffffffffffffffffffffffff1602179055503480156200005257600080fd5b506040518060400160405280600d81526020017f534153482d55534420426f6e6400000000000000000000000000000000000000815250600560008081526020019081526020016000209080519060200190620000b192919062000103565b50600860096000808152602001908152602001600020819055506001600a6000808152602001908152602001600020819055506000600b600080815260200190815260200160002081905550620001b2565b828054600181600116156101000203166002900490600052602060002090601f016020900481019282601f106200014657805160ff191683800117855562000177565b8280016001018555821562000177579182015b828111156200017657825182559160200191906001019062000159565b5b5090506200018691906200018a565b5090565b620001af91905b80821115620001ab57600081600090555060010162000191565b5090565b90565b6130e980620001c26000396000f3fe608060405234801561001057600080fd5b50600436106101c45760003560e01c80637abb8efb116100f9578063b2ee391e11610097578063ccea7b8611610071578063ccea7b8614610dca578063de26ffad14610e16578063df29545f14610f26578063fc3838d914610f94576101c4565b8063b2ee391e14610ccc578063bc3c19f714610d32578063c2458d6b14610d7e576101c4565b80639c5d0a0e116100d35780639c5d0a0e14610b0d5780639e04563814610b59578063a5eccab214610c34578063b15edbe514610c80576101c4565b80637abb8efb14610a3f5780637fc81fb514610a895780639b56223914610acb576101c4565b806352f7091c11610166578063675981b711610140578063675981b7146108f157806370822a661461096157806371d68ce8146109ad57806376094580146109fd576101c4565b806352f7091c1461062f5780635825d8fd146107405780635ec49ff11461089b576101c4565b80632ddea62b116101a25780632ddea62b1461031e5780632e513c06146104995780633cec73fc1461051c5780634be80cb914610588576101c4565b80631d0f114b146101c95780632444a165146102705780632d760d57146102b2575b600080fd5b6101f5600480360360208110156101df57600080fd5b8101908080359060200190929190505050610fe0565b6040518080602001828103825283818151815260200191508051906020019080838360005b8381101561023557808201518184015260208101905061021a565b50505050905090810190601f1680156102625780820380516001836020036101000a031916815260200191505b509250505060405180910390f35b61029c6004803603602081101561028657600080fd5b8101908080359060200190929190505050611090565b6040518082815260200191505060405180910390f35b610308600480360360608110156102c857600080fd5b81019080803573ffffffffffffffffffffffffffffffffffffffff16906020019092919080359060200190929190803590602001909291905050506110a8565b6040518082815260200191505060405180910390f35b61047f600480360360a081101561033457600080fd5b81019080803573ffffffffffffffffffffffffffffffffffffffff169060200190929190803573ffffffffffffffffffffffffffffffffffffffff1690602001909291908035906020019064010000000081111561039157600080fd5b8201836020820111156103a357600080fd5b803590602001918460208302840111640100000000831117156103c557600080fd5b9091929391929390803590602001906401000000008111156103e657600080fd5b8201836020820111156103f857600080fd5b8035906020019184602083028401116401000000008311171561041a57600080fd5b90919293919293908035906020019064010000000081111561043b57600080fd5b82018360208201111561044d57600080fd5b8035906020019184602083028401116401000000008311171561046f57600080fd5b9091929391929390505050611199565b604051808215151515815260200191505060405180910390f35b6104c5600480360360208110156104af57600080fd5b81019080803590602001909291905050506114a7565b6040518080602001828103825283818151815260200191508051906020019060200280838360005b838110156105085780820151818401526020810190506104ed565b505050509050019250505060405180910390f35b6105726004803603606081101561053257600080fd5b81019080803573ffffffffffffffffffffffffffffffffffffffff1690602001909291908035906020019092919080359060200190929190505050611512565b6040518082815260200191505060405180910390f35b6105b46004803603602081101561059e57600080fd5b8101908080359060200190929190505050611544565b6040518080602001828103825283818151815260200191508051906020019080838360005b838110156105f45780820151818401526020810190506105d9565b50505050905090810190601f1680156106215780820380516001836020036101000a031916815260200191505b509250505060405180910390f35b610726600480360360a081101561064557600080fd5b8101908080359060200190929190803573ffffffffffffffffffffffffffffffffffffffff1690602001909291908035906020019064010000000081111561068c57600080fd5b82018360208201111561069e57600080fd5b803590602001918460018302840111640100000000831117156106c057600080fd5b91908080601f016020809104026020016040519081016040528093929190818152602001838380828437600081840152601f19601f82011690508083019250505050505050919291929080359060200190929190803590602001909291905050506115f9565b604051808215151515815260200191505060405180910390f35b6108816004803603608081101561075657600080fd5b81019080803573ffffffffffffffffffffffffffffffffffffffff1690602001909291908035906020019064010000000081111561079357600080fd5b8201836020820111156107a557600080fd5b803590602001918460208302840111640100000000831117156107c757600080fd5b9091929391929390803590602001906401000000008111156107e857600080fd5b8201836020820111156107fa57600080fd5b8035906020019184602083028401116401000000008311171561081c57600080fd5b90919293919293908035906020019064010000000081111561083d57600080fd5b82018360208201111561084f57600080fd5b8035906020019184602083028401116401000000008311171561087157600080fd5b909192939192939050505061178e565b604051808215151515815260200191505060405180910390f35b6108db600480360360608110156108b157600080fd5b81019080803590602001909291908035906020019092919080359060200190929190505050611a31565b6040518082815260200191505060405180910390f35b6109476004803603606081101561090757600080fd5b81019080803573ffffffffffffffffffffffffffffffffffffffff1690602001909291908035906020019092919080359060200190929190505050611a63565b604051808215151515815260200191505060405180910390f35b6109976004803603604081101561097757600080fd5b810190808035906020019092919080359060200190929190505050611d15565b6040518082815260200191505060405180910390f35b6109e3600480360360408110156109c357600080fd5b810190808035906020019092919080359060200190929190505050611d3a565b604051808215151515815260200191505060405180910390f35b610a2960048036036020811015610a1357600080fd5b8101908080359060200190929190505050611e8f565b6040518082815260200191505060405180910390f35b610a47611ea7565b604051808273ffffffffffffffffffffffffffffffffffffffff1673ffffffffffffffffffffffffffffffffffffffff16815260200191505060405180910390f35b610ab560048036036020811015610a9f57600080fd5b8101908080359060200190929190505050611ecd565b6040518082815260200191505060405180910390f35b610af760048036036020811015610ae157600080fd5b8101908080359060200190929190505050611ee5565b6040518082815260200191505060405180910390f35b610b4360048036036040811015610b2357600080fd5b810190808035906020019092919080359060200190929190505050611efd565b6040518082815260200191505060405180910390f35b610b8f60048036036040811015610b6f57600080fd5b810190808035906020019092919080359060200190929190505050611f2b565b6040518080602001888152602001878152602001868152602001858152602001848152602001838152602001828103825289818151815260200191508051906020019080838360005b83811015610bf3578082015181840152602081019050610bd8565b50505050905090810190601f168015610c205780820380516001836020036101000a031916815260200191505b509850505050505050505060405180910390f35b610c6a60048036036040811015610c4a57600080fd5b810190808035906020019092919080359060200190929190505050612146565b6040518082815260200191505060405180910390f35b610cb660048036036040811015610c9657600080fd5b81019080803590602001909291908035906020019092919050505061216b565b6040518082815260200191505060405180910390f35b610d1860048036036040811015610ce257600080fd5b8101908080359060200190929190803573ffffffffffffffffffffffffffffffffffffffff16906020019092919050505061219a565b604051808215151515815260200191505060405180910390f35b610d6860048036036040811015610d4857600080fd5b8101908080359060200190929190803590602001909291905050506122bb565b6040518082815260200191505060405180910390f35b610db460048036036040811015610d9457600080fd5b8101908080359060200190929190803590602001909291905050506122ea565b6040518082815260200191505060405180910390f35b610e0060048036036040811015610de057600080fd5b810190808035906020019092919080359060200190929190505050612365565b6040518082815260200191505060405180910390f35b610f0c60048036036080811015610e2c57600080fd5b81019080803573ffffffffffffffffffffffffffffffffffffffff1690602001909291908035906020019092919080359060200190640100000000811115610e7357600080fd5b820183602082011115610e8557600080fd5b80359060200191846020830284011164010000000083111715610ea757600080fd5b909192939192939080359060200190640100000000811115610ec857600080fd5b820183602082011115610eda57600080fd5b80359060200191846020830284011164010000000083111715610efc57600080fd5b9091929391929390505050612394565b604051808215151515815260200191505060405180910390f35b610f5260048036036020811015610f3c57600080fd5b810190808035906020019092919050505061265b565b604051808273ffffffffffffffffffffffffffffffffffffffff1673ffffffffffffffffffffffffffffffffffffffff16815260200191505060405180910390f35b610fca60048036036040811015610faa57600080fd5b81019080803590602001909291908035906020019092919050505061268e565b6040518082815260200191505060405180910390f35b60056020528060005260406000206000915090508054600181600116156101000203166002900480601f0160208091040260200160405190810160405280929190818152602001828054600181600116156101000203166002900480156110885780601f1061105d57610100808354040283529160200191611088565b820191906000526020600020905b81548152906001019060200180831161106b57829003601f168201915b505050505081565b60076020528060005260406000206000915090505481565b60008073ffffffffffffffffffffffffffffffffffffffff168473ffffffffffffffffffffffffffffffffffffffff16141561112f576040517f08c379a000000000000000000000000000000000000000000000000000000000815260040180806020018281038252602a815260200180613067602a913960400191505060405180910390fd5b6000808573ffffffffffffffffffffffffffffffffffffffff1673ffffffffffffffffffffffffffffffffffffffff168152602001908152602001600020600084815260200190815260200160002060008381526020019081526020016000205490509392505050565b600080600090505b8585905081101561149657600460008989848181106111bc57fe5b90506020020135815260200190815260200160002060009054906101000a900473ffffffffffffffffffffffffffffffffffffffff1673ffffffffffffffffffffffffffffffffffffffff163373ffffffffffffffffffffffffffffffffffffffff16148061125657508973ffffffffffffffffffffffffffffffffffffffff163373ffffffffffffffffffffffffffffffffffffffff16145b6112c8576040517f08c379a000000000000000000000000000000000000000000000000000000000815260040180806020018281038252601d8152602001807f4552433635393a206f70657261746f7220756e617574686f72697a656400000081525060200191505060405180910390fd5b8383828181106112d457fe5b905060200201356000808c73ffffffffffffffffffffffffffffffffffffffff1673ffffffffffffffffffffffffffffffffffffffff16815260200190815260200160002060008a8a8581811061132757fe5b905060200201358152602001908152602001600020600088888581811061134a57fe5b9050602002013581526020019081526020016000205410156113b7576040517f08c379a00000000000000000000000000000000000000000000000000000000081526004018080602001828103825260238152602001806130916023913960400191505060405180910390fd5b600073ffffffffffffffffffffffffffffffffffffffff168973ffffffffffffffffffffffffffffffffffffffff16141561143d576040517f08c379a000000000000000000000000000000000000000000000000000000000815260040180806020018281038252603e815260200180613003603e913960400191505060405180910390fd5b6114808a8a8a8a8581811061144e57fe5b9050602002013589898681811061146157fe5b9050602002013588888781811061147457fe5b905060200201356126b3565b61148957600080fd5b80806001019150506111a1565b506001905098975050505050505050565b60606008600083815260200190815260200160002080548060200260200160405190810160405280929190818152602001828054801561150657602002820191906000526020600020905b8154815260200190600101908083116114f2575b50505050509050919050565b600060205282600052604060002060205281600052604060002060205280600052604060002060009250925050505481565b6060600560008381526020019081526020016000208054600181600116156101000203166002900480601f0160208091040260200160405190810160405280929190818152602001828054600181600116156101000203166002900480156115ed5780601f106115c2576101008083540402835291602001916115ed565b820191906000526020600020905b8154815290600101906020018083116115d057829003601f168201915b50505050509050919050565b6000600c60009054906101000a900473ffffffffffffffffffffffffffffffffffffffff1673ffffffffffffffffffffffffffffffffffffffff163373ffffffffffffffffffffffffffffffffffffffff16146116be576040517f08c379a000000000000000000000000000000000000000000000000000000000815260040180806020018281038252601d8152602001807f4552433635393a206f70657261746f7220756e617574686f72697a656400000081525060200191505060405180910390fd5b836005600088815260200190815260200160002090805190602001906116e5929190612f03565b50846004600088815260200190815260200160002060006101000a81548173ffffffffffffffffffffffffffffffffffffffff021916908373ffffffffffffffffffffffffffffffffffffffff16021790555082600960008881526020019081526020016000208190555081600a6000888152602001908152602001600020819055506000600b6000888152602001908152602001600020819055506001905095945050505050565b600080600090505b85859050811015611a2157600460008989848181106117b157fe5b90506020020135815260200190815260200160002060009054906101000a900473ffffffffffffffffffffffffffffffffffffffff1673ffffffffffffffffffffffffffffffffffffffff163373ffffffffffffffffffffffffffffffffffffffff16148061184b57508873ffffffffffffffffffffffffffffffffffffffff163373ffffffffffffffffffffffffffffffffffffffff16145b6118bd576040517f08c379a000000000000000000000000000000000000000000000000000000000815260040180806020018281038252601d8152602001807f4552433635393a206f70657261746f7220756e617574686f72697a656400000081525060200191505060405180910390fd5b8383828181106118c957fe5b905060200201356000808b73ffffffffffffffffffffffffffffffffffffffff1673ffffffffffffffffffffffffffffffffffffffff16815260200190815260200160002060008a8a8581811061191c57fe5b905060200201358152602001908152602001600020600088888581811061193f57fe5b9050602002013581526020019081526020016000205410156119c9576040517f08c379a000000000000000000000000000000000000000000000000000000000815260040180806020018281038252601f8152602001807f4552433635393a206e6f7420656e6f75676820626f6e6420746f206275726e0081525060200191505060405180910390fd5b611a0b898989848181106119d957fe5b905060200201358888858181106119ec57fe5b905060200201358787868181106119ff57fe5b90506020020135612881565b611a1457600080fd5b8080600101915050611796565b5060019050979650505050505050565b600660205282600052604060002060205281600052604060002060205280600052604060002060009250925050505481565b60008073ffffffffffffffffffffffffffffffffffffffff168473ffffffffffffffffffffffffffffffffffffffff161415611aea576040517f08c379a00000000000000000000000000000000000000000000000000000000081526004018080602001828103825260268152602001806130416026913960400191505060405180910390fd5b6064821015611b61576040517f08c379a00000000000000000000000000000000000000000000000000000000081526004018080602001828103825260168152602001807f4552433635393a20696e76616c696420616d6f756e740000000000000000000081525060200191505060405180910390fd5b6000600b6000858152602001908152602001600020541415611bb457600a6000848152602001908152602001600020544281611b9957fe5b064203600b6000858152602001908152602001600020819055505b6000600a600085815260200190815260200160002054600b600086815260200190815260200160002054420381611be757fe5b04905060006001905060006002905060008060008090505b600960008a815260200190815260200160002054811015611c5d576000811415611c2c5760019250611c4b565b6001811415611c3e5760029250611c4a565b83850192508394508293505b5b82820191508080600101915050611bff565b50806103e8880281611c6b57fe5b04905060009150600193506002925060008090505b600960008a815260200190815260200160002054811015611d04576000811415611cad5760019250611ccc565b6001811415611cbf5760029250611ccb565b83850192508394508293505b5b60011515611ceb8b8b868a016103e888880281611ce557fe5b046129ac565b151514611cf757600080fd5b8080600101915050611c80565b506001955050505050509392505050565b6002602052816000526040600020602052806000526040600020600091509150505481565b600042600660008581526020019081526020016000206000848152602001908152602001600020600060018152602001908152602001600020541015611e845760008060008090505b60076000878152602001908152602001600020548111611df957600360008781526020019081526020016000206000828152602001908152602001600020546001600088815260200190815260200160002060008381526020019081526020016000205401830192508080600101915050611d83565b5060008090505b848111611e6657600260036000888152602001908152602001600020600083815260200190815260200160002054600160008981526020019081526020016000206000848152602001908152602001600020540102820191508080600101915050611e00565b50808210611e7957600192505050611e89565b600092505050611e89565b600090505b92915050565b600b6020528060005260406000206000915090505481565b600c60009054906101000a900473ffffffffffffffffffffffffffffffffffffffff1681565b600a6020528060005260406000206000915090505481565b60096020528060005260406000206000915090505481565b60086020528160005260406000208181548110611f1657fe5b90600052602060002001600091509150505481565b6060600080600080600080600560008a81526020019081526020016000208054600181600116156101000203166002900480601f016020809104026020016040519081016040528092919081815260200182805460018160011615610100020316600290048015611fdd5780601f10611fb257610100808354040283529160200191611fdd565b820191906000526020600020905b815481529060010190602001808311611fc057829003601f168201915b50505050509650600660008a81526020019081526020016000206000898152602001908152602001600020600060018152602001908152602001600020549550600660008a81526020019081526020016000206000898152602001908152602001600020600060028152602001908152602001600020549450600660008a81526020019081526020016000206000898152602001908152602001600020600060038152602001908152602001600020549350600660008a81526020019081526020016000206000898152602001908152602001600020600060048152602001908152602001600020549250600660008a81526020019081526020016000206000898152602001908152602001600020600060058152602001908152602001600020549150600660008a8152602001908152602001600020600089815260200190815260200160002060006006815260200190815260200160002054905092959891949750929550565b6003602052816000526040600020602052806000526040600020600091509150505481565b600060016000848152602001908152602001600020600083815260200190815260200160002054905092915050565b6000600c60009054906101000a900473ffffffffffffffffffffffffffffffffffffffff1673ffffffffffffffffffffffffffffffffffffffff163373ffffffffffffffffffffffffffffffffffffffff161461225f576040517f08c379a000000000000000000000000000000000000000000000000000000000815260040180806020018281038252601d8152602001807f4552433635393a206f70657261746f7220756e617574686f72697a656400000081525060200191505060405180910390fd5b816004600085815260200190815260200160002060006101000a81548173ffffffffffffffffffffffffffffffffffffffff021916908373ffffffffffffffffffffffffffffffffffffffff1602179055506001905092915050565b600060026000848152602001908152602001600020600083815260200190815260200160002054905092915050565b60006003600084815260200190815260200160002060008381526020019081526020016000205460026000858152602001908152602001600020600084815260200190815260200160002054600160008681526020019081526020016000206000858152602001908152602001600020540101905092915050565b600060036000848152602001908152602001600020600083815260200190815260200160002054905092915050565b60006004600087815260200190815260200160002060009054906101000a900473ffffffffffffffffffffffffffffffffffffffff1673ffffffffffffffffffffffffffffffffffffffff163373ffffffffffffffffffffffffffffffffffffffff16148061242e57508673ffffffffffffffffffffffffffffffffffffffff163373ffffffffffffffffffffffffffffffffffffffff16145b6124a0576040517f08c379a000000000000000000000000000000000000000000000000000000000815260040180806020018281038252601d8152602001807f4552433635393a206f70657261746f7220756e617574686f72697a656400000081525060200191505060405180910390fd5b60008090505b8585905081101561264c578383828181106124bd57fe5b905060200201356000808a73ffffffffffffffffffffffffffffffffffffffff1673ffffffffffffffffffffffffffffffffffffffff1681526020019081526020016000206000898152602001908152602001600020600088888581811061252157fe5b90506020020135815260200190815260200160002054101561258e576040517f08c379a0000000000000000000000000000000000000000000000000000000008152600401808060200182810382526026815260200180612fdd6026913960400191505060405180910390fd5b600115156125ae888888858181106125a257fe5b90506020020135611d3a565b151514612606576040517f08c379a0000000000000000000000000000000000000000000000000000000008152600401808060200182810382526034815260200180612fa96034913960400191505060405180910390fd5b612636888888888581811061261757fe5b9050602002013587878681811061262a57fe5b90506020020135612b44565b61263f57600080fd5b80806001019150506124a6565b50600190509695505050505050565b60046020528060005260406000206000915054906101000a900473ffffffffffffffffffffffffffffffffffffffff1681565b6001602052816000526040600020602052806000526040600020600091509150505481565b6000816000808873ffffffffffffffffffffffffffffffffffffffff1673ffffffffffffffffffffffffffffffffffffffff1681526020019081526020016000206000868152602001908152602001600020600085815260200190815260200160002060008282540392505081905550816000808773ffffffffffffffffffffffffffffffffffffffff1673ffffffffffffffffffffffffffffffffffffffff16815260200190815260200160002060008681526020019081526020016000206000858152602001908152602001600020600082825401925050819055507f9f32b8ffa303549658d2435755556a7c295c2c6ed827f75256899319ffdfa70b338787878787604051808773ffffffffffffffffffffffffffffffffffffffff1673ffffffffffffffffffffffffffffffffffffffff1681526020018673ffffffffffffffffffffffffffffffffffffffff1673ffffffffffffffffffffffffffffffffffffffff1681526020018573ffffffffffffffffffffffffffffffffffffffff1673ffffffffffffffffffffffffffffffffffffffff168152602001848152602001838152602001828152602001965050505050505060405180910390a16001905095945050505050565b6000816000808773ffffffffffffffffffffffffffffffffffffffff1673ffffffffffffffffffffffffffffffffffffffff16815260200190815260200160002060008681526020019081526020016000206000858152602001908152602001600020600082825403925050819055507fec63035e10dd1c8025fbe8d3c8baf46760e1ff9cdc8461ca7cbaf7fd3394f9053386868686604051808673ffffffffffffffffffffffffffffffffffffffff1673ffffffffffffffffffffffffffffffffffffffff1681526020018573ffffffffffffffffffffffffffffffffffffffff1673ffffffffffffffffffffffffffffffffffffffff1681526020018481526020018381526020018281526020019550505050505060405180910390a160019050949350505050565b6000806129b985856122ea565b14156129d5576129cb85858585612cd3565b5060019050612b3c565b816000808773ffffffffffffffffffffffffffffffffffffffff1673ffffffffffffffffffffffffffffffffffffffff168152602001908152602001600020600086815260200190815260200160002060008581526020019081526020016000206000828254019250508190555081600160008681526020019081526020016000206000858152602001908152602001600020600082825401925050819055507f5d57ae351fb21d62ec3f02e7813257f8d955a4868bb8e9f3f8fbb3aa9faa4035338686600760008981526020019081526020016000205486604051808673ffffffffffffffffffffffffffffffffffffffff1673ffffffffffffffffffffffffffffffffffffffff1681526020018573ffffffffffffffffffffffffffffffffffffffff1673ffffffffffffffffffffffffffffffffffffffff1681526020018481526020018381526020018281526020019550505050505060405180910390a1600190505b949350505050565b6000816000808773ffffffffffffffffffffffffffffffffffffffff1673ffffffffffffffffffffffffffffffffffffffff1681526020019081526020016000206000868152602001908152602001600020600085815260200190815260200160002060008282540392505081905550816001600086815260200190815260200160002060008581526020019081526020016000206000828254039250508190555081600360008681526020019081526020016000206000858152602001908152602001600020600082825401925050819055507f83cf0c7a97f83a855520ca4249d607c889ab1d2ceb6f65e993269001debf03a83386868686604051808673ffffffffffffffffffffffffffffffffffffffff1673ffffffffffffffffffffffffffffffffffffffff1681526020018573ffffffffffffffffffffffffffffffffffffffff1673ffffffffffffffffffffffffffffffffffffffff1681526020018481526020018381526020018281526020019550505050505060405180910390a160019050949350505050565b60008260076000868152602001908152602001600020541015612d09578260076000868152602001908152602001600020819055505b60086000858152602001908152602001600020839080600181540180825580915050600190039060005260206000200160009091909190915055600a6000858152602001908152602001600020548302600b6000868152602001908152602001600020540160066000868152602001908152602001600020600085815260200190815260200160002060006001815260200190815260200160002081905550816000808773ffffffffffffffffffffffffffffffffffffffff1673ffffffffffffffffffffffffffffffffffffffff168152602001908152602001600020600086815260200190815260200160002060008581526020019081526020016000206000828254019250508190555081600160008681526020019081526020016000206000858152602001908152602001600020600082825401925050819055507f5d57ae351fb21d62ec3f02e7813257f8d955a4868bb8e9f3f8fbb3aa9faa40353386868686604051808673ffffffffffffffffffffffffffffffffffffffff1673ffffffffffffffffffffffffffffffffffffffff1681526020018573ffffffffffffffffffffffffffffffffffffffff1673ffffffffffffffffffffffffffffffffffffffff1681526020018481526020018381526020018281526020019550505050505060405180910390a160019050949350505050565b828054600181600116156101000203166002900490600052602060002090601f016020900481019282601f10612f4457805160ff1916838001178555612f72565b82800160010185558215612f72579182015b82811115612f71578251825591602001919060010190612f56565b5b509050612f7f9190612f83565b5090565b612fa591905b80821115612fa1576000816000905550600101612f89565b5090565b9056fe4552433635393a2063616e27742072656465656d20626f6e64206265666f7265206974277320726564656d7074696f6e206461794552433635393a206e6f7420656e6f75676820626f6e6420666f7220726564656d7074696f6e4552433635393a2063616e742774207472616e7366657220746f207a65726f20626f6e642c2075736520276275726e426f6e6428292720696e73746561644552433635393a20697373756520626f6e6420746f20746865207a65726f20616464726573734552433635393a2062616c616e636520717565727920666f7220746865207a65726f20616464726573734552433635393a206e6f7420656e6f75676820626f6e6420746f207472616e73666572a2646970667358221220077e5b359ce43c504978bb1f37bfe9aa77caa835c61df1e43d1f84fcdb3fbd5364736f6c63430006080033",
  "immutableReferences": {},
  "source": "pragma solidity ^0.6.2;\nimport \"./util/SafeMath.sol\";\nimport \"./util/IERC3475.sol\";\nimport \"./util/ERC3475data.sol\";\n// SPDX-License-Identifier: apache 2.0\n/*\n    Copyright 2020 Sigmoid Foundation <info@SGM.finance>\n\n    Licensed under the Apache License, Version 2.0 (the \"License\");\n    you may not use this file except in compliance with the License.\n    You may obtain a copy of the License at\n\n    http://www.apache.org/licenses/LICENSE-2.0\n\n    Unless required by applicable law or agreed to in writing, software\n    distributed under the License is distributed on an \"AS IS\" BASIS,\n    WITHOUT WARRANTIES OR CONDITIONS OF ANY KIND, either express or implied.\n    See the License for the specific language governing permissions and\n    limitations under the License.\n*/\n\ncontract TestBond is IERC3475, ERC3475data{\n    \n    \n    mapping (uint256 => uint256)  public _Fibonacci_number;\n    mapping (uint256 => uint256)  public _Fibonacci_epoch;\n    mapping (uint256 => uint256)  public _genesis_nonce_time;\n    \n    address public dev_address=msg.sender;\n   \n\n\n    constructor () public {\n        \n        _Symbol[0]=\"SASH-USD Bond\";\n        _Fibonacci_number[0]=8;\n        _Fibonacci_epoch[0]=1;\n        _genesis_nonce_time[0]=0;\n        \n    }\n    \n    function setBond(uint256 class, address  bank_contract)public override returns (bool) {\n        require(msg.sender==dev_address, \"ERC659: operator unauthorized\");\n        _bankAddress[class]=bank_contract;\n        return true;\n    }   \n    \n    function getNonceCreated(uint256 class) public override view returns (uint256[] memory){\n        return _nonceCreated[class];\n    }\n\n    function createBondClass(uint256 class, address bank_contract, string memory bond_symbol, uint256 Fibonacci_number, uint256 Fibonacci_epoch)public returns (bool) {\n        require(msg.sender==dev_address, \"ERC659: operator unauthorized\");\n        _Symbol[class]=bond_symbol;\n        _bankAddress[class]=bank_contract;\n        _Fibonacci_number[class]=Fibonacci_number;\n        _Fibonacci_epoch[class]=Fibonacci_epoch;\n        _genesis_nonce_time[class]=0;\n        return true;\n    }   \n    \n    function totalSupply( uint256 class, uint256 nonce) public override view returns (uint256) {\n    \n       return _activeSupply[class][nonce]+_burnedSupply[class][nonce]+_redeemedSupply[class][nonce];\n    }\n    function activeSupply( uint256 class, uint256 nonce) public override view returns (uint256) {\n    \n       return _activeSupply[class][nonce];\n    }\n    function burnedSupply( uint256 class, uint256 nonce) public override view  returns (uint256) {\n    \n        return _burnedSupply[class][nonce];\n    }\n    function redeemedSupply(  uint256 class, uint256 nonce) public override view  returns (uint256) {\n    \n        return _redeemedSupply[class][nonce];\n    }\n    function balanceOf(address account, uint256 class, uint256 nonce) public override view returns (uint256){\n        require(account != address(0), \"ERC659: balance query for the zero address\");\n        return _balances[account][class][nonce];\n    }\n    function getBondSymbol(uint256 class) view public override returns (string memory){\n        \n        return _Symbol[class]; \n    }     \n    function getBondInfo(uint256 class, uint256 nonce) public view override returns (string memory BondSymbol, uint256 timestamp, uint256 info2, uint256 info3, uint256 info4, uint256 info5,uint256 info6) {\n        BondSymbol=_Symbol[class];\n        timestamp=_info[class][nonce][1];\n        info2=_info[class][nonce][2];\n        info3=_info[class][nonce][3];\n        info4=_info[class][nonce][4];\n        info5=_info[class][nonce][5];\n        info6=_info[class][nonce][6];\n    } \n    function bondIsRedeemable(uint256 class, uint256 nonce) public override view returns (bool){\n        \n        if(uint(_info[class][nonce][1])<now){\n            uint256 total_liquidity;\n            uint256 needed_liquidity;\n            //uint256 available_liquidity;\n    \n            for (uint i=0; i<=last_bond_nonce[class]; i++) {\n                total_liquidity += _activeSupply[class][i]+_redeemedSupply[class][i];\n                }\n            \n            for (uint i=0; i<=nonce; i++) {\n                needed_liquidity += (_activeSupply[class][i]+_redeemedSupply[class][i])*2;\n                }\n                \n            if(total_liquidity>=needed_liquidity){\n               \n                return(true);\n                \n                }\n            \n            else{\n                return(false);\n            }\n         }\n         \n    else{\n            return(false);\n        }\n\n             \n         }\n         \n    function _createBond(address _to, uint256 class, uint256 nonce, uint256 _amount) private returns(bool) {\n    \n        if(last_bond_nonce[class]<nonce)\n        {last_bond_nonce[class]=nonce;}\n        _nonceCreated[class].push(nonce);\n        _info[class][nonce][1]=_genesis_nonce_time[class] + (nonce) * _Fibonacci_epoch[class];\n        _balances[_to][class][nonce]+=_amount;\n        _activeSupply[class][nonce]+=_amount;\n        emit eventIssueBond(msg.sender, _to, class,nonce, _amount);\n        return(true);\n    }\n    function _issueBond(address _to, uint256 class, uint256 nonce, uint256 _amount) private returns(bool) {\n       \n       \n        if (totalSupply(class,nonce)==0){\n            _createBond(_to,class,nonce,_amount);\n            return(true);\n            }\n            \n        else{\n            \n            _balances[_to][class][nonce]+=_amount;\n            _activeSupply[class][nonce]+=_amount;\n            emit eventIssueBond(msg.sender, _to, class,last_bond_nonce[class], _amount);\n            return(true);\n            }\n    }    \n    function _redeemBond(address _from, uint256 class, uint256 nonce, uint256 _amount) private returns(bool) {\n       \n        _balances[_from][class][nonce]-=_amount;\n        _activeSupply[class][nonce]-=_amount;\n        _redeemedSupply[class][nonce]+=_amount;\n        emit eventRedeemBond( msg.sender,_from, class, nonce, _amount);\n        return(true);\n    }    \n    function _transferBond(address _from, address _to, uint256 class, uint256 nonce, uint256 _amount) private returns(bool){      \n        _balances[_from][class][nonce]-=_amount;\n        _balances[_to][class][nonce]+=_amount;\n        emit eventTransferBond( msg.sender,_from,_to, class, nonce, _amount);\n        return(true);\n    \n            }\n    function _burnBond(address _from, uint256 class, uint256 nonce, uint256 _amount) private returns(bool){      \n        _balances[_from][class][nonce]-=_amount;\n        emit eventBurnBond( msg.sender,_from, class, nonce, _amount);\n        return(true);\n    \n            }\n            \n    function issueBond(address _to, uint256  class, uint256 _amount) external override returns(bool){\n        //require(msg.sender==_bankAddress[class], \"ERC659: operator unauthorized\");\n        require(_to != address(0), \"ERC659: issue bond to the zero address\");\n        require(_amount >= 100, \"ERC659: invalid amount\");\n        if(_genesis_nonce_time[class]==0){_genesis_nonce_time[class]=now-now % _Fibonacci_epoch[class];}\n        uint256  now_nonce=(now-_genesis_nonce_time[class])/_Fibonacci_epoch[class];\n        uint256 FibonacciTimeEponge0=1;\n        uint256 FibonacciTimeEponge1=2;\n        uint256 FibonacciTimeEponge;\n        uint256 amount_out_eponge;\n        for (uint i=0; i<_Fibonacci_number[class]; i++) {\n            if(i==0){FibonacciTimeEponge=1;}\n            else{\n                if(i==1){FibonacciTimeEponge=2;}\n                else{\n                    FibonacciTimeEponge=(FibonacciTimeEponge0+FibonacciTimeEponge1);\n                    FibonacciTimeEponge0=FibonacciTimeEponge1;\n                    FibonacciTimeEponge1=FibonacciTimeEponge;\n                    \n            }\n        }   \n            amount_out_eponge+=FibonacciTimeEponge;     \n}\n        \n        amount_out_eponge=_amount*1e3/amount_out_eponge;\n        FibonacciTimeEponge=0;\n        FibonacciTimeEponge0=1;\n        FibonacciTimeEponge1=2;\n        for (uint i=0; i<_Fibonacci_number[class]; i++) {\n            if(i==0){FibonacciTimeEponge=1;}\n            else{\n                if(i==1){FibonacciTimeEponge=2;}\n                else{\n                    FibonacciTimeEponge=(FibonacciTimeEponge0+FibonacciTimeEponge1);\n                    FibonacciTimeEponge0=FibonacciTimeEponge1;\n                    FibonacciTimeEponge1=FibonacciTimeEponge;\n            }\n        }   \n            require(_issueBond( _to, class, now_nonce + FibonacciTimeEponge, amount_out_eponge * FibonacciTimeEponge/1e3) == true);\n    }    \n      return(true);\n}\n    function redeemBond(address _from, uint256 class, uint256[] calldata nonce, uint256[] calldata  _amount) external override returns(bool){\n        require(msg.sender==_bankAddress[class] || msg.sender==_from, \"ERC659: operator unauthorized\");\n        for (uint i=0; i<nonce.length; i++) {\n            require(_balances[_from][class][nonce[i]] >= _amount[i], \"ERC659: not enough bond for redemption\");\n            require(bondIsRedeemable(class,nonce[i])==true, \"ERC659: can't redeem bond before it's redemption day\");\n            require(_redeemBond(_from,class,nonce[i],_amount[i]));\n        }\n        \n        return(true);\n\n       \n        }\n    function transferBond(address _from, address _to, uint256[] calldata class, uint256[] calldata nonce, uint256[] calldata _amount) external override returns(bool){ \n        \n        for (uint n=0; n<nonce.length; n++) {\n            require(msg.sender==_bankAddress[class[n]] || msg.sender==_from, \"ERC659: operator unauthorized\");\n            require(_balances[_from][class[n]][nonce[n]] >= _amount[n], \"ERC659: not enough bond to transfer\");\n            require(_to!=address(0), \"ERC659: cant't transfer to zero bond, use 'burnBond()' instead\");\n            require(_transferBond(_from, _to, class[n], nonce[n], _amount[n]));\n           \n            \n        }\n        return(true);\n    }\n    function burnBond(address _from, uint256[] calldata class, uint256[] calldata nonce, uint256[] calldata _amount) external override returns(bool){\n   \n        for (uint n=0; n<nonce.length; n++) {\n            require(msg.sender==_bankAddress[class[n]] || msg.sender==_from, \"ERC659: operator unauthorized\");\n            require(_balances[_from][class[n]][nonce[n]] >= _amount[n], \"ERC659: not enough bond to burn\");\n            require(_burnBond(_from, class[n], nonce[n], _amount[n]));\n           \n            \n        }\n        return(true);\n    }\n}\n",
  "sourcePath": "/home/cedric/dev/www/debond/EIP-3475/contracts/TestBond.sol",
  "compiler": {
    "name": "solc",
    "version": "0.6.8+commit.0bbfe453.Emscripten.clang"
  },
  "schemaVersion": "3.4.4",
  "updatedAt": "2022-01-18T23:10:31.235Z",
  "devdoc": {
    "methods": {}
  },
  "userdoc": {
    "methods": {}
  }
}