{
  "contractName": "TestBond",
  "abi": [
    {
      "inputs": [],
      "stateMutability": "nonpayable",
      "type": "constructor"
    },
    {
      "anonymous": false,
      "inputs": [
        {
          "indexed": false,
          "internalType": "address",
          "name": "_operator",
          "type": "address"
        },
        {
          "indexed": false,
          "internalType": "address",
          "name": "_from",
          "type": "address"
        },
        {
          "indexed": false,
          "internalType": "uint256",
          "name": "class",
          "type": "uint256"
        },
        {
          "indexed": false,
          "internalType": "uint256",
          "name": "nonce",
          "type": "uint256"
        },
        {
          "indexed": false,
          "internalType": "uint256",
          "name": "_amount",
          "type": "uint256"
        }
      ],
      "name": "eventBurnBond",
      "type": "event"
    },
    {
      "anonymous": false,
      "inputs": [
        {
          "indexed": false,
          "internalType": "address",
          "name": "_operator",
          "type": "address"
        },
        {
          "indexed": false,
          "internalType": "address",
          "name": "_to",
          "type": "address"
        },
        {
          "indexed": false,
          "internalType": "uint256",
          "name": "class",
          "type": "uint256"
        },
        {
          "indexed": false,
          "internalType": "uint256",
          "name": "nonce",
          "type": "uint256"
        },
        {
          "indexed": false,
          "internalType": "uint256",
          "name": "_amount",
          "type": "uint256"
        }
      ],
      "name": "eventIssueBond",
      "type": "event"
    },
    {
      "anonymous": false,
      "inputs": [
        {
          "indexed": false,
          "internalType": "address",
          "name": "_operator",
          "type": "address"
        },
        {
          "indexed": false,
          "internalType": "address",
          "name": "_from",
          "type": "address"
        },
        {
          "indexed": false,
          "internalType": "uint256",
          "name": "class",
          "type": "uint256"
        },
        {
          "indexed": false,
          "internalType": "uint256",
          "name": "nonce",
          "type": "uint256"
        },
        {
          "indexed": false,
          "internalType": "uint256",
          "name": "_amount",
          "type": "uint256"
        }
      ],
      "name": "eventRedeemBond",
      "type": "event"
    },
    {
      "anonymous": false,
      "inputs": [
        {
          "indexed": false,
          "internalType": "address",
          "name": "_operator",
          "type": "address"
        },
        {
          "indexed": false,
          "internalType": "address",
          "name": "_from",
          "type": "address"
        },
        {
          "indexed": false,
          "internalType": "address",
          "name": "_to",
          "type": "address"
        },
        {
          "indexed": false,
          "internalType": "uint256",
          "name": "class",
          "type": "uint256"
        },
        {
          "indexed": false,
          "internalType": "uint256",
          "name": "nonce",
          "type": "uint256"
        },
        {
          "indexed": false,
          "internalType": "uint256",
          "name": "_amount",
          "type": "uint256"
        }
      ],
      "name": "eventTransferBond",
      "type": "event"
    },
    {
      "inputs": [
        {
          "internalType": "uint256",
          "name": "",
          "type": "uint256"
        }
      ],
      "name": "_Fibonacci_epoch",
      "outputs": [
        {
          "internalType": "uint256",
          "name": "",
          "type": "uint256"
        }
      ],
      "stateMutability": "view",
      "type": "function"
    },
    {
      "inputs": [
        {
          "internalType": "uint256",
          "name": "",
          "type": "uint256"
        }
      ],
      "name": "_Fibonacci_number",
      "outputs": [
        {
          "internalType": "uint256",
          "name": "",
          "type": "uint256"
        }
      ],
      "stateMutability": "view",
      "type": "function"
    },
    {
      "inputs": [
        {
          "internalType": "uint256",
          "name": "",
          "type": "uint256"
        }
      ],
      "name": "_genesis_nonce_time",
      "outputs": [
        {
          "internalType": "uint256",
          "name": "",
          "type": "uint256"
        }
      ],
      "stateMutability": "view",
      "type": "function"
    },
    {
      "inputs": [
        {
          "internalType": "uint256",
          "name": "",
          "type": "uint256"
        },
        {
          "internalType": "uint256",
          "name": "",
          "type": "uint256"
        },
        {
          "internalType": "uint256",
          "name": "",
          "type": "uint256"
        }
      ],
      "name": "_info",
      "outputs": [
        {
          "internalType": "uint256",
          "name": "",
          "type": "uint256"
        }
      ],
      "stateMutability": "view",
      "type": "function"
    },
    {
      "inputs": [
        {
          "internalType": "uint256",
          "name": "",
          "type": "uint256"
        },
        {
          "internalType": "uint256",
          "name": "",
          "type": "uint256"
        }
      ],
      "name": "_nonceCreated",
      "outputs": [
        {
          "internalType": "uint256",
          "name": "",
          "type": "uint256"
        }
      ],
      "stateMutability": "view",
      "type": "function"
    },
    {
      "inputs": [],
      "name": "dev_address",
      "outputs": [
        {
          "internalType": "address",
          "name": "",
          "type": "address"
        }
      ],
      "stateMutability": "view",
      "type": "function"
    },
    {
      "inputs": [
        {
          "internalType": "uint256",
          "name": "",
          "type": "uint256"
        }
      ],
      "name": "last_bond_nonce",
      "outputs": [
        {
          "internalType": "uint256",
          "name": "",
          "type": "uint256"
        }
      ],
      "stateMutability": "view",
      "type": "function"
    },
    {
      "inputs": [
        {
          "internalType": "uint256",
          "name": "class",
          "type": "uint256"
        },
        {
          "internalType": "address",
          "name": "bank_contract",
          "type": "address"
        }
      ],
      "name": "setBond",
      "outputs": [
        {
          "internalType": "bool",
          "name": "",
          "type": "bool"
        }
      ],
      "stateMutability": "nonpayable",
      "type": "function"
    },
    {
      "inputs": [
        {
          "internalType": "uint256",
          "name": "class",
          "type": "uint256"
        }
      ],
      "name": "getNonceCreated",
      "outputs": [
        {
          "internalType": "uint256[]",
          "name": "",
          "type": "uint256[]"
        }
      ],
      "stateMutability": "view",
      "type": "function"
    },
    {
      "inputs": [
        {
          "internalType": "uint256",
          "name": "class",
          "type": "uint256"
        },
        {
          "internalType": "address",
          "name": "bank_contract",
          "type": "address"
        },
        {
          "internalType": "string",
          "name": "bond_symbol",
          "type": "string"
        },
        {
          "internalType": "uint256",
          "name": "Fibonacci_number",
          "type": "uint256"
        },
        {
          "internalType": "uint256",
          "name": "Fibonacci_epoch",
          "type": "uint256"
        }
      ],
      "name": "createBondClass",
      "outputs": [
        {
          "internalType": "bool",
          "name": "",
          "type": "bool"
        }
      ],
      "stateMutability": "nonpayable",
      "type": "function"
    },
    {
      "inputs": [
        {
          "internalType": "uint256",
          "name": "class",
          "type": "uint256"
        },
        {
          "internalType": "uint256",
          "name": "nonce",
          "type": "uint256"
        }
      ],
      "name": "totalSupply",
      "outputs": [
        {
          "internalType": "uint256",
          "name": "",
          "type": "uint256"
        }
      ],
      "stateMutability": "view",
      "type": "function"
    },
    {
      "inputs": [
        {
          "internalType": "uint256",
          "name": "class",
          "type": "uint256"
        },
        {
          "internalType": "uint256",
          "name": "nonce",
          "type": "uint256"
        }
      ],
      "name": "activeSupply",
      "outputs": [
        {
          "internalType": "uint256",
          "name": "",
          "type": "uint256"
        }
      ],
      "stateMutability": "view",
      "type": "function"
    },
    {
      "inputs": [
        {
          "internalType": "uint256",
          "name": "class",
          "type": "uint256"
        },
        {
          "internalType": "uint256",
          "name": "nonce",
          "type": "uint256"
        }
      ],
      "name": "burnedSupply",
      "outputs": [
        {
          "internalType": "uint256",
          "name": "",
          "type": "uint256"
        }
      ],
      "stateMutability": "view",
      "type": "function"
    },
    {
      "inputs": [
        {
          "internalType": "uint256",
          "name": "class",
          "type": "uint256"
        },
        {
          "internalType": "uint256",
          "name": "nonce",
          "type": "uint256"
        }
      ],
      "name": "redeemedSupply",
      "outputs": [
        {
          "internalType": "uint256",
          "name": "",
          "type": "uint256"
        }
      ],
      "stateMutability": "view",
      "type": "function"
    },
    {
      "inputs": [
        {
          "internalType": "address",
          "name": "account",
          "type": "address"
        },
        {
          "internalType": "uint256",
          "name": "class",
          "type": "uint256"
        },
        {
          "internalType": "uint256",
          "name": "nonce",
          "type": "uint256"
        }
      ],
      "name": "balanceOf",
      "outputs": [
        {
          "internalType": "uint256",
          "name": "",
          "type": "uint256"
        }
      ],
      "stateMutability": "view",
      "type": "function"
    },
    {
      "inputs": [
        {
          "internalType": "uint256",
          "name": "class",
          "type": "uint256"
        }
      ],
      "name": "getBondSymbol",
      "outputs": [
        {
          "internalType": "string",
          "name": "",
          "type": "string"
        }
      ],
      "stateMutability": "view",
      "type": "function"
    },
    {
      "inputs": [
        {
          "internalType": "uint256",
          "name": "class",
          "type": "uint256"
        },
        {
          "internalType": "uint256",
          "name": "nonce",
          "type": "uint256"
        }
      ],
      "name": "getBondInfo",
      "outputs": [
        {
          "internalType": "string",
          "name": "BondSymbol",
          "type": "string"
        },
        {
          "internalType": "uint256",
          "name": "timestamp",
          "type": "uint256"
        },
        {
          "internalType": "uint256",
          "name": "info2",
          "type": "uint256"
        },
        {
          "internalType": "uint256",
          "name": "info3",
          "type": "uint256"
        },
        {
          "internalType": "uint256",
          "name": "info4",
          "type": "uint256"
        },
        {
          "internalType": "uint256",
          "name": "info5",
          "type": "uint256"
        },
        {
          "internalType": "uint256",
          "name": "info6",
          "type": "uint256"
        }
      ],
      "stateMutability": "view",
      "type": "function"
    },
    {
      "inputs": [
        {
          "internalType": "uint256",
          "name": "class",
          "type": "uint256"
        },
        {
          "internalType": "uint256",
          "name": "nonce",
          "type": "uint256"
        }
      ],
      "name": "bondIsRedeemable",
      "outputs": [
        {
          "internalType": "bool",
          "name": "",
          "type": "bool"
        }
      ],
      "stateMutability": "view",
      "type": "function"
    },
    {
      "inputs": [
        {
          "internalType": "address",
          "name": "_to",
          "type": "address"
        },
        {
          "internalType": "uint256",
          "name": "class",
          "type": "uint256"
        },
        {
          "internalType": "uint256",
          "name": "_amount",
          "type": "uint256"
        }
      ],
      "name": "issueBond",
      "outputs": [
        {
          "internalType": "bool",
          "name": "",
          "type": "bool"
        }
      ],
      "stateMutability": "nonpayable",
      "type": "function"
    },
    {
      "inputs": [
        {
          "internalType": "address",
          "name": "_from",
          "type": "address"
        },
        {
          "internalType": "uint256",
          "name": "class",
          "type": "uint256"
        },
        {
          "internalType": "uint256[]",
          "name": "nonce",
          "type": "uint256[]"
        },
        {
          "internalType": "uint256[]",
          "name": "_amount",
          "type": "uint256[]"
        }
      ],
      "name": "redeemBond",
      "outputs": [
        {
          "internalType": "bool",
          "name": "",
          "type": "bool"
        }
      ],
      "stateMutability": "nonpayable",
      "type": "function"
    },
    {
      "inputs": [
        {
          "internalType": "address",
          "name": "_from",
          "type": "address"
        },
        {
          "internalType": "address",
          "name": "_to",
          "type": "address"
        },
        {
          "internalType": "uint256[]",
          "name": "class",
          "type": "uint256[]"
        },
        {
          "internalType": "uint256[]",
          "name": "nonce",
          "type": "uint256[]"
        },
        {
          "internalType": "uint256[]",
          "name": "_amount",
          "type": "uint256[]"
        }
      ],
      "name": "transferBond",
      "outputs": [
        {
          "internalType": "bool",
          "name": "",
          "type": "bool"
        }
      ],
      "stateMutability": "nonpayable",
      "type": "function"
    },
    {
      "inputs": [
        {
          "internalType": "address",
          "name": "_from",
          "type": "address"
        },
        {
          "internalType": "uint256[]",
          "name": "class",
          "type": "uint256[]"
        },
        {
          "internalType": "uint256[]",
          "name": "nonce",
          "type": "uint256[]"
        },
        {
          "internalType": "uint256[]",
          "name": "_amount",
          "type": "uint256[]"
        }
      ],
      "name": "burnBond",
      "outputs": [
        {
          "internalType": "bool",
          "name": "",
          "type": "bool"
        }
      ],
      "stateMutability": "nonpayable",
      "type": "function"
    }
  ],
  "bytecode": "0x608060405233600c60006101000a81548173ffffffffffffffffffffffffffffffffffffffff021916908373ffffffffffffffffffffffffffffffffffffffff16021790555034801561005157600080fd5b5073ecc3803dc9650f28c3f75940aa96b7f974e2fc586004600080815260200190815260200160002060006101000a81548173ffffffffffffffffffffffffffffffffffffffff021916908373ffffffffffffffffffffffffffffffffffffffff160217905550600880600080815260200190815260200160002081905550600160096000808152602001908152602001600020819055506000600a600080815260200190815260200160002081905550612c7e806101116000396000f3fe608060405234801561001057600080fd5b50600436106101425760003560e01c80637abb8efb116100b8578063b15edbe51161007c578063b15edbe514610a53578063b2ee391e14610a9f578063bc3c19f714610b05578063c2458d6b14610b51578063ccea7b8614610b9d578063de26ffad14610be957610142565b80637abb8efb1461085e5780637fc81fb5146108a85780639b562239146108ea5780639c5d0a0e1461092c5780639e0456381461097857610142565b806352f7091c1161010a57806352f7091c1461049a5780635825d8fd146105ab5780635ec49ff114610706578063675981b71461075c57806371d68ce8146107cc578063760945801461081c57610142565b80632444a165146101475780632d760d57146101895780632ddea62b146101f55780632e513c06146103705780634be80cb9146103f3575b600080fd5b6101736004803603602081101561015d57600080fd5b8101908080359060200190929190505050610cf9565b6040518082815260200191505060405180910390f35b6101df6004803603606081101561019f57600080fd5b81019080803573ffffffffffffffffffffffffffffffffffffffff1690602001909291908035906020019092919080359060200190929190505050610d11565b6040518082815260200191505060405180910390f35b610356600480360360a081101561020b57600080fd5b81019080803573ffffffffffffffffffffffffffffffffffffffff169060200190929190803573ffffffffffffffffffffffffffffffffffffffff1690602001909291908035906020019064010000000081111561026857600080fd5b82018360208201111561027a57600080fd5b8035906020019184602083028401116401000000008311171561029c57600080fd5b9091929391929390803590602001906401000000008111156102bd57600080fd5b8201836020820111156102cf57600080fd5b803590602001918460208302840111640100000000831117156102f157600080fd5b90919293919293908035906020019064010000000081111561031257600080fd5b82018360208201111561032457600080fd5b8035906020019184602083028401116401000000008311171561034657600080fd5b9091929391929390505050610e02565b604051808215151515815260200191505060405180910390f35b61039c6004803603602081101561038657600080fd5b8101908080359060200190929190505050611110565b6040518080602001828103825283818151815260200191508051906020019060200280838360005b838110156103df5780820151818401526020810190506103c4565b505050509050019250505060405180910390f35b61041f6004803603602081101561040957600080fd5b810190808035906020019092919050505061117b565b6040518080602001828103825283818151815260200191508051906020019080838360005b8381101561045f578082015181840152602081019050610444565b50505050905090810190601f16801561048c5780820380516001836020036101000a031916815260200191505b509250505060405180910390f35b610591600480360360a08110156104b057600080fd5b8101908080359060200190929190803573ffffffffffffffffffffffffffffffffffffffff169060200190929190803590602001906401000000008111156104f757600080fd5b82018360208201111561050957600080fd5b8035906020019184600183028401116401000000008311171561052b57600080fd5b91908080601f016020809104026020016040519081016040528093929190818152602001838380828437600081840152601f19601f8201169050808301925050505050505091929192908035906020019092919080359060200190929190505050611230565b604051808215151515815260200191505060405180910390f35b6106ec600480360360808110156105c157600080fd5b81019080803573ffffffffffffffffffffffffffffffffffffffff169060200190929190803590602001906401000000008111156105fe57600080fd5b82018360208201111561061057600080fd5b8035906020019184602083028401116401000000008311171561063257600080fd5b90919293919293908035906020019064010000000081111561065357600080fd5b82018360208201111561066557600080fd5b8035906020019184602083028401116401000000008311171561068757600080fd5b9091929391929390803590602001906401000000008111156106a857600080fd5b8201836020820111156106ba57600080fd5b803590602001918460208302840111640100000000831117156106dc57600080fd5b90919293919293905050506113c5565b604051808215151515815260200191505060405180910390f35b6107466004803603606081101561071c57600080fd5b81019080803590602001909291908035906020019092919080359060200190929190505050611668565b6040518082815260200191505060405180910390f35b6107b26004803603606081101561077257600080fd5b81019080803573ffffffffffffffffffffffffffffffffffffffff169060200190929190803590602001909291908035906020019092919050505061169a565b604051808215151515815260200191505060405180910390f35b610802600480360360408110156107e257600080fd5b81019080803590602001909291908035906020019092919050505061194c565b604051808215151515815260200191505060405180910390f35b6108486004803603602081101561083257600080fd5b8101908080359060200190929190505050611aa1565b6040518082815260200191505060405180910390f35b610866611ab9565b604051808273ffffffffffffffffffffffffffffffffffffffff1673ffffffffffffffffffffffffffffffffffffffff16815260200191505060405180910390f35b6108d4600480360360208110156108be57600080fd5b8101908080359060200190929190505050611adf565b6040518082815260200191505060405180910390f35b6109166004803603602081101561090057600080fd5b8101908080359060200190929190505050611af7565b6040518082815260200191505060405180910390f35b6109626004803603604081101561094257600080fd5b810190808035906020019092919080359060200190929190505050611b0f565b6040518082815260200191505060405180910390f35b6109ae6004803603604081101561098e57600080fd5b810190808035906020019092919080359060200190929190505050611b3d565b6040518080602001888152602001878152602001868152602001858152602001848152602001838152602001828103825289818151815260200191508051906020019080838360005b83811015610a125780820151818401526020810190506109f7565b50505050905090810190601f168015610a3f5780820380516001836020036101000a031916815260200191505b509850505050505050505060405180910390f35b610a8960048036036040811015610a6957600080fd5b810190808035906020019092919080359060200190929190505050611d58565b6040518082815260200191505060405180910390f35b610aeb60048036036040811015610ab557600080fd5b8101908080359060200190929190803573ffffffffffffffffffffffffffffffffffffffff169060200190929190505050611d87565b604051808215151515815260200191505060405180910390f35b610b3b60048036036040811015610b1b57600080fd5b810190808035906020019092919080359060200190929190505050611ea8565b6040518082815260200191505060405180910390f35b610b8760048036036040811015610b6757600080fd5b810190808035906020019092919080359060200190929190505050611ed7565b6040518082815260200191505060405180910390f35b610bd360048036036040811015610bb357600080fd5b810190808035906020019092919080359060200190929190505050611f52565b6040518082815260200191505060405180910390f35b610cdf60048036036080811015610bff57600080fd5b81019080803573ffffffffffffffffffffffffffffffffffffffff1690602001909291908035906020019092919080359060200190640100000000811115610c4657600080fd5b820183602082011115610c5857600080fd5b80359060200191846020830284011164010000000083111715610c7a57600080fd5b909192939192939080359060200190640100000000811115610c9b57600080fd5b820183602082011115610cad57600080fd5b80359060200191846020830284011164010000000083111715610ccf57600080fd5b9091929391929390505050611f81565b604051808215151515815260200191505060405180910390f35b60076020528060005260406000206000915090505481565b60008073ffffffffffffffffffffffffffffffffffffffff168473ffffffffffffffffffffffffffffffffffffffff161415610d98576040517f08c379a000000000000000000000000000000000000000000000000000000000815260040180806020018281038252602a815260200180612bfc602a913960400191505060405180910390fd5b6000808573ffffffffffffffffffffffffffffffffffffffff1673ffffffffffffffffffffffffffffffffffffffff168152602001908152602001600020600084815260200190815260200160002060008381526020019081526020016000205490509392505050565b600080600090505b858590508110156110ff5760046000898984818110610e2557fe5b90506020020135815260200190815260200160002060009054906101000a900473ffffffffffffffffffffffffffffffffffffffff1673ffffffffffffffffffffffffffffffffffffffff163373ffffffffffffffffffffffffffffffffffffffff161480610ebf57508973ffffffffffffffffffffffffffffffffffffffff163373ffffffffffffffffffffffffffffffffffffffff16145b610f31576040517f08c379a000000000000000000000000000000000000000000000000000000000815260040180806020018281038252601d8152602001807f4552433635393a206f70657261746f7220756e617574686f72697a656400000081525060200191505060405180910390fd5b838382818110610f3d57fe5b905060200201356000808c73ffffffffffffffffffffffffffffffffffffffff1673ffffffffffffffffffffffffffffffffffffffff16815260200190815260200160002060008a8a85818110610f9057fe5b9050602002013581526020019081526020016000206000888885818110610fb357fe5b905060200201358152602001908152602001600020541015611020576040517f08c379a0000000000000000000000000000000000000000000000000000000008152600401808060200182810382526023815260200180612c266023913960400191505060405180910390fd5b600073ffffffffffffffffffffffffffffffffffffffff168973ffffffffffffffffffffffffffffffffffffffff1614156110a6576040517f08c379a000000000000000000000000000000000000000000000000000000000815260040180806020018281038252603e815260200180612b98603e913960400191505060405180910390fd5b6110e98a8a8a8a858181106110b757fe5b905060200201358989868181106110ca57fe5b905060200201358888878181106110dd57fe5b90506020020135612248565b6110f257600080fd5b8080600101915050610e0a565b506001905098975050505050505050565b6060600b600083815260200190815260200160002080548060200260200160405190810160405280929190818152602001828054801561116f57602002820191906000526020600020905b81548152602001906001019080831161115b575b50505050509050919050565b6060600560008381526020019081526020016000208054600181600116156101000203166002900480601f0160208091040260200160405190810160405280929190818152602001828054600181600116156101000203166002900480156112245780601f106111f957610100808354040283529160200191611224565b820191906000526020600020905b81548152906001019060200180831161120757829003601f168201915b50505050509050919050565b6000600c60009054906101000a900473ffffffffffffffffffffffffffffffffffffffff1673ffffffffffffffffffffffffffffffffffffffff163373ffffffffffffffffffffffffffffffffffffffff16146112f5576040517f08c379a000000000000000000000000000000000000000000000000000000000815260040180806020018281038252601d8152602001807f4552433635393a206f70657261746f7220756e617574686f72697a656400000081525060200191505060405180910390fd5b8360056000888152602001908152602001600020908051906020019061131c929190612a98565b50846004600088815260200190815260200160002060006101000a81548173ffffffffffffffffffffffffffffffffffffffff021916908373ffffffffffffffffffffffffffffffffffffffff1602179055508260086000888152602001908152602001600020819055508160096000888152602001908152602001600020819055506000600a6000888152602001908152602001600020819055506001905095945050505050565b600080600090505b8585905081101561165857600460008989848181106113e857fe5b90506020020135815260200190815260200160002060009054906101000a900473ffffffffffffffffffffffffffffffffffffffff1673ffffffffffffffffffffffffffffffffffffffff163373ffffffffffffffffffffffffffffffffffffffff16148061148257508873ffffffffffffffffffffffffffffffffffffffff163373ffffffffffffffffffffffffffffffffffffffff16145b6114f4576040517f08c379a000000000000000000000000000000000000000000000000000000000815260040180806020018281038252601d8152602001807f4552433635393a206f70657261746f7220756e617574686f72697a656400000081525060200191505060405180910390fd5b83838281811061150057fe5b905060200201356000808b73ffffffffffffffffffffffffffffffffffffffff1673ffffffffffffffffffffffffffffffffffffffff16815260200190815260200160002060008a8a8581811061155357fe5b905060200201358152602001908152602001600020600088888581811061157657fe5b905060200201358152602001908152602001600020541015611600576040517f08c379a000000000000000000000000000000000000000000000000000000000815260040180806020018281038252601f8152602001807f4552433635393a206e6f7420656e6f75676820626f6e6420746f206275726e0081525060200191505060405180910390fd5b6116428989898481811061161057fe5b9050602002013588888581811061162357fe5b9050602002013587878681811061163657fe5b90506020020135612416565b61164b57600080fd5b80806001019150506113cd565b5060019050979650505050505050565b600660205282600052604060002060205281600052604060002060205280600052604060002060009250925050505481565b60008073ffffffffffffffffffffffffffffffffffffffff168473ffffffffffffffffffffffffffffffffffffffff161415611721576040517f08c379a0000000000000000000000000000000000000000000000000000000008152600401808060200182810382526026815260200180612bd66026913960400191505060405180910390fd5b6064821015611798576040517f08c379a00000000000000000000000000000000000000000000000000000000081526004018080602001828103825260168152602001807f4552433635393a20696e76616c696420616d6f756e740000000000000000000081525060200191505060405180910390fd5b6000600a60008581526020019081526020016000205414156117eb57600960008481526020019081526020016000205442816117d057fe5b064203600a6000858152602001908152602001600020819055505b60006009600085815260200190815260200160002054600a60008681526020019081526020016000205442038161181e57fe5b04905060006001905060006002905060008060008090505b600860008a8152602001908152602001600020548110156118945760008114156118635760019250611882565b60018114156118755760029250611881565b83850192508394508293505b5b82820191508080600101915050611836565b50806103e88802816118a257fe5b04905060009150600193506002925060008090505b600860008a81526020019081526020016000205481101561193b5760008114156118e45760019250611903565b60018114156118f65760029250611902565b83850192508394508293505b5b600115156119228b8b868a016103e88888028161191c57fe5b04612541565b15151461192e57600080fd5b80806001019150506118b7565b506001955050505050509392505050565b600042600660008581526020019081526020016000206000848152602001908152602001600020600060018152602001908152602001600020541015611a965760008060008090505b60076000878152602001908152602001600020548111611a0b57600360008781526020019081526020016000206000828152602001908152602001600020546001600088815260200190815260200160002060008381526020019081526020016000205401830192508080600101915050611995565b5060008090505b848111611a7857600260036000888152602001908152602001600020600083815260200190815260200160002054600160008981526020019081526020016000206000848152602001908152602001600020540102820191508080600101915050611a12565b50808210611a8b57600192505050611a9b565b600092505050611a9b565b600090505b92915050565b600a6020528060005260406000206000915090505481565b600c60009054906101000a900473ffffffffffffffffffffffffffffffffffffffff1681565b60096020528060005260406000206000915090505481565b60086020528060005260406000206000915090505481565b600b6020528160005260406000208181548110611b2857fe5b90600052602060002001600091509150505481565b6060600080600080600080600560008a81526020019081526020016000208054600181600116156101000203166002900480601f016020809104026020016040519081016040528092919081815260200182805460018160011615610100020316600290048015611bef5780601f10611bc457610100808354040283529160200191611bef565b820191906000526020600020905b815481529060010190602001808311611bd257829003601f168201915b50505050509650600660008a81526020019081526020016000206000898152602001908152602001600020600060018152602001908152602001600020549550600660008a81526020019081526020016000206000898152602001908152602001600020600060028152602001908152602001600020549450600660008a81526020019081526020016000206000898152602001908152602001600020600060038152602001908152602001600020549350600660008a81526020019081526020016000206000898152602001908152602001600020600060048152602001908152602001600020549250600660008a81526020019081526020016000206000898152602001908152602001600020600060058152602001908152602001600020549150600660008a8152602001908152602001600020600089815260200190815260200160002060006006815260200190815260200160002054905092959891949750929550565b600060016000848152602001908152602001600020600083815260200190815260200160002054905092915050565b6000600c60009054906101000a900473ffffffffffffffffffffffffffffffffffffffff1673ffffffffffffffffffffffffffffffffffffffff163373ffffffffffffffffffffffffffffffffffffffff1614611e4c576040517f08c379a000000000000000000000000000000000000000000000000000000000815260040180806020018281038252601d8152602001807f4552433635393a206f70657261746f7220756e617574686f72697a656400000081525060200191505060405180910390fd5b816004600085815260200190815260200160002060006101000a81548173ffffffffffffffffffffffffffffffffffffffff021916908373ffffffffffffffffffffffffffffffffffffffff1602179055506001905092915050565b600060026000848152602001908152602001600020600083815260200190815260200160002054905092915050565b60006003600084815260200190815260200160002060008381526020019081526020016000205460026000858152602001908152602001600020600084815260200190815260200160002054600160008681526020019081526020016000206000858152602001908152602001600020540101905092915050565b600060036000848152602001908152602001600020600083815260200190815260200160002054905092915050565b60006004600087815260200190815260200160002060009054906101000a900473ffffffffffffffffffffffffffffffffffffffff1673ffffffffffffffffffffffffffffffffffffffff163373ffffffffffffffffffffffffffffffffffffffff16148061201b57508673ffffffffffffffffffffffffffffffffffffffff163373ffffffffffffffffffffffffffffffffffffffff16145b61208d576040517f08c379a000000000000000000000000000000000000000000000000000000000815260040180806020018281038252601d8152602001807f4552433635393a206f70657261746f7220756e617574686f72697a656400000081525060200191505060405180910390fd5b60008090505b85859050811015612239578383828181106120aa57fe5b905060200201356000808a73ffffffffffffffffffffffffffffffffffffffff1673ffffffffffffffffffffffffffffffffffffffff1681526020019081526020016000206000898152602001908152602001600020600088888581811061210e57fe5b90506020020135815260200190815260200160002054101561217b576040517f08c379a0000000000000000000000000000000000000000000000000000000008152600401808060200182810382526026815260200180612b726026913960400191505060405180910390fd5b6001151561219b8888888581811061218f57fe5b9050602002013561194c565b1515146121f3576040517f08c379a0000000000000000000000000000000000000000000000000000000008152600401808060200182810382526034815260200180612b3e6034913960400191505060405180910390fd5b612223888888888581811061220457fe5b9050602002013587878681811061221757fe5b905060200201356126d9565b61222c57600080fd5b8080600101915050612093565b50600190509695505050505050565b6000816000808873ffffffffffffffffffffffffffffffffffffffff1673ffffffffffffffffffffffffffffffffffffffff1681526020019081526020016000206000868152602001908152602001600020600085815260200190815260200160002060008282540392505081905550816000808773ffffffffffffffffffffffffffffffffffffffff1673ffffffffffffffffffffffffffffffffffffffff16815260200190815260200160002060008681526020019081526020016000206000858152602001908152602001600020600082825401925050819055507f9f32b8ffa303549658d2435755556a7c295c2c6ed827f75256899319ffdfa70b338787878787604051808773ffffffffffffffffffffffffffffffffffffffff1673ffffffffffffffffffffffffffffffffffffffff1681526020018673ffffffffffffffffffffffffffffffffffffffff1673ffffffffffffffffffffffffffffffffffffffff1681526020018573ffffffffffffffffffffffffffffffffffffffff1673ffffffffffffffffffffffffffffffffffffffff168152602001848152602001838152602001828152602001965050505050505060405180910390a16001905095945050505050565b6000816000808773ffffffffffffffffffffffffffffffffffffffff1673ffffffffffffffffffffffffffffffffffffffff16815260200190815260200160002060008681526020019081526020016000206000858152602001908152602001600020600082825403925050819055507fec63035e10dd1c8025fbe8d3c8baf46760e1ff9cdc8461ca7cbaf7fd3394f9053386868686604051808673ffffffffffffffffffffffffffffffffffffffff1673ffffffffffffffffffffffffffffffffffffffff1681526020018573ffffffffffffffffffffffffffffffffffffffff1673ffffffffffffffffffffffffffffffffffffffff1681526020018481526020018381526020018281526020019550505050505060405180910390a160019050949350505050565b60008061254e8585611ed7565b141561256a5761256085858585612868565b50600190506126d1565b816000808773ffffffffffffffffffffffffffffffffffffffff1673ffffffffffffffffffffffffffffffffffffffff168152602001908152602001600020600086815260200190815260200160002060008581526020019081526020016000206000828254019250508190555081600160008681526020019081526020016000206000858152602001908152602001600020600082825401925050819055507f5d57ae351fb21d62ec3f02e7813257f8d955a4868bb8e9f3f8fbb3aa9faa4035338686600760008981526020019081526020016000205486604051808673ffffffffffffffffffffffffffffffffffffffff1673ffffffffffffffffffffffffffffffffffffffff1681526020018573ffffffffffffffffffffffffffffffffffffffff1673ffffffffffffffffffffffffffffffffffffffff1681526020018481526020018381526020018281526020019550505050505060405180910390a1600190505b949350505050565b6000816000808773ffffffffffffffffffffffffffffffffffffffff1673ffffffffffffffffffffffffffffffffffffffff1681526020019081526020016000206000868152602001908152602001600020600085815260200190815260200160002060008282540392505081905550816001600086815260200190815260200160002060008581526020019081526020016000206000828254039250508190555081600360008681526020019081526020016000206000858152602001908152602001600020600082825401925050819055507f83cf0c7a97f83a855520ca4249d607c889ab1d2ceb6f65e993269001debf03a83386868686604051808673ffffffffffffffffffffffffffffffffffffffff1673ffffffffffffffffffffffffffffffffffffffff1681526020018573ffffffffffffffffffffffffffffffffffffffff1673ffffffffffffffffffffffffffffffffffffffff1681526020018481526020018381526020018281526020019550505050505060405180910390a160019050949350505050565b6000826007600086815260200190815260200160002054101561289e578260076000868152602001908152602001600020819055505b600b600085815260200190815260200160002083908060018154018082558091505060019003906000526020600020016000909190919091505560096000858152602001908152602001600020548302600a6000868152602001908152602001600020540160066000868152602001908152602001600020600085815260200190815260200160002060006001815260200190815260200160002081905550816000808773ffffffffffffffffffffffffffffffffffffffff1673ffffffffffffffffffffffffffffffffffffffff168152602001908152602001600020600086815260200190815260200160002060008581526020019081526020016000206000828254019250508190555081600160008681526020019081526020016000206000858152602001908152602001600020600082825401925050819055507f5d57ae351fb21d62ec3f02e7813257f8d955a4868bb8e9f3f8fbb3aa9faa40353386868686604051808673ffffffffffffffffffffffffffffffffffffffff1673ffffffffffffffffffffffffffffffffffffffff1681526020018573ffffffffffffffffffffffffffffffffffffffff1673ffffffffffffffffffffffffffffffffffffffff1681526020018481526020018381526020018281526020019550505050505060405180910390a160019050949350505050565b828054600181600116156101000203166002900490600052602060002090601f016020900481019282601f10612ad957805160ff1916838001178555612b07565b82800160010185558215612b07579182015b82811115612b06578251825591602001919060010190612aeb565b5b509050612b149190612b18565b5090565b612b3a91905b80821115612b36576000816000905550600101612b1e565b5090565b9056fe4552433635393a2063616e27742072656465656d20626f6e64206265666f7265206974277320726564656d7074696f6e206461794552433635393a206e6f7420656e6f75676820626f6e6420666f7220726564656d7074696f6e4552433635393a2063616e742774207472616e7366657220746f207a65726f20626f6e642c2075736520276275726e426f6e6428292720696e73746561644552433635393a20697373756520626f6e6420746f20746865207a65726f20616464726573734552433635393a2062616c616e636520717565727920666f7220746865207a65726f20616464726573734552433635393a206e6f7420656e6f75676820626f6e6420746f207472616e73666572a2646970667358221220a94165f1426a87e6c6c23f85a74be63ba6bc27638191d4ffbbdf3877f635213164736f6c63430006080033",
  "immutableReferences": {},
  "source": "pragma solidity ^0.6.2;\r\nimport \"./util/IERC659.sol\";\r\nimport \"./util/SafeMath.sol\";\r\n/*\r\n    Copyright 2020 Sigmoid Foundation <info@SGM.finance>\r\n\r\n    Licensed under the Apache License, Version 2.0 (the \"License\");\r\n    you may not use this file except in compliance with the License.\r\n    You may obtain a copy of the License at\r\n\r\n    http://www.apache.org/licenses/LICENSE-2.0\r\n\r\n    Unless required by applicable law or agreed to in writing, software\r\n    distributed under the License is distributed on an \"AS IS\" BASIS,\r\n    WITHOUT WARRANTIES OR CONDITIONS OF ANY KIND, either express or implied.\r\n    See the License for the specific language governing permissions and\r\n    limitations under the License.\r\n*/\r\n\r\n contract TestBond is IERC659{\r\n    using SafeMath for uint256;\r\n    \r\n    mapping (address => mapping( uint256 =>mapping(uint256=> uint256))) private _balances;\r\n    \r\n    mapping (uint256 => mapping(uint256 => uint256)) private _activeSupply;\r\n    \r\n    mapping (uint256 => mapping(uint256 => uint256)) private _burnedSupply;\r\n  \r\n    mapping (uint256 => mapping(uint256 => uint256)) private _redeemedSupply;\r\n\r\n    mapping (uint256 => address) private _bankAddress;\r\n    \r\n    mapping (uint256 => string) private _Symbol;\r\n    \r\n    mapping (uint256 => mapping(uint256=> mapping(uint256=> uint256))) public _info;\r\n\r\n    mapping (uint256 => uint256)  public last_bond_nonce;\r\n    mapping (uint256 => uint256)  public _Fibonacci_number;\r\n    mapping (uint256 => uint256)  public _Fibonacci_epoch;\r\n    mapping (uint256 => uint256)  public _genesis_nonce_time;\r\n    mapping (uint256 => uint256[]) public _nonceCreated;\r\n    address public dev_address=msg.sender;\r\n\r\n\r\n    constructor () public {\r\n        \r\n        _bankAddress[0]=address(0xEcC3803DC9650f28c3f75940AA96B7F974e2FC58);\r\n        _Fibonacci_number[0]=8;\r\n        _Fibonacci_epoch[0]=1;\r\n        _genesis_nonce_time[0]=0;\r\n        \r\n    }\r\n    \r\n    function setBond(uint256 class, address  bank_contract)public override returns (bool) {\r\n        require(msg.sender==dev_address, \"ERC659: operator unauthorized\");\r\n        _bankAddress[class]=bank_contract;\r\n        return true;\r\n    }   \r\n      function getNonceCreated(uint256 class) public view returns (uint256[] memory){\r\n        return _nonceCreated[class];\r\n    }\r\n    function createBondClass(uint256 class, address bank_contract, string memory bond_symbol, uint256 Fibonacci_number, uint256 Fibonacci_epoch)public returns (bool) {\r\n        require(msg.sender==dev_address, \"ERC659: operator unauthorized\");\r\n        _Symbol[class]=bond_symbol;\r\n        _bankAddress[class]=bank_contract;\r\n        _Fibonacci_number[class]=Fibonacci_number;\r\n        _Fibonacci_epoch[class]=Fibonacci_epoch;\r\n        _genesis_nonce_time[class]=0;\r\n        return true;\r\n    }   \r\n    \r\n    function totalSupply( uint256 class, uint256 nonce) public override view returns (uint256) {\r\n    \r\n       return _activeSupply[class][nonce]+_burnedSupply[class][nonce]+_redeemedSupply[class][nonce];\r\n    }\r\n    function activeSupply( uint256 class, uint256 nonce) public override view returns (uint256) {\r\n    \r\n       return _activeSupply[class][nonce];\r\n    }\r\n    function burnedSupply( uint256 class, uint256 nonce) public override view  returns (uint256) {\r\n    \r\n        return _burnedSupply[class][nonce];\r\n    }\r\n    function redeemedSupply(  uint256 class, uint256 nonce) public override view  returns (uint256) {\r\n    \r\n        return _redeemedSupply[class][nonce];\r\n    }\r\n    function balanceOf(address account, uint256 class, uint256 nonce) public override view returns (uint256){\r\n        require(account != address(0), \"ERC659: balance query for the zero address\");\r\n        return _balances[account][class][nonce];\r\n    }\r\n    function getBondSymbol(uint256 class) view public override returns (string memory){\r\n        \r\n        return _Symbol[class]; \r\n    }     \r\n    function getBondInfo(uint256 class, uint256 nonce) public view override returns (string memory BondSymbol, uint256 timestamp, uint256 info2, uint256 info3, uint256 info4, uint256 info5,uint256 info6) {\r\n        BondSymbol=_Symbol[class];\r\n        timestamp=_info[class][nonce][1];\r\n        info2=_info[class][nonce][2];\r\n        info3=_info[class][nonce][3];\r\n        info4=_info[class][nonce][4];\r\n        info5=_info[class][nonce][5];\r\n        info6=_info[class][nonce][6];\r\n    } \r\n    function bondIsRedeemable(uint256 class, uint256 nonce) public override view returns (bool){\r\n        \r\n        if(uint(_info[class][nonce][1])<now){\r\n            uint256 total_liquidity;\r\n            uint256 needed_liquidity;\r\n            //uint256 available_liquidity;\r\n    \r\n            for (uint i=0; i<=last_bond_nonce[class]; i++) {\r\n                total_liquidity += _activeSupply[class][i]+_redeemedSupply[class][i];\r\n                }\r\n            \r\n            for (uint i=0; i<=nonce; i++) {\r\n                needed_liquidity += (_activeSupply[class][i]+_redeemedSupply[class][i])*2;\r\n                }\r\n                \r\n            if(total_liquidity>=needed_liquidity){\r\n               \r\n                return(true);\r\n                \r\n                }\r\n            \r\n            else{\r\n                return(false);\r\n            }\r\n         }\r\n         \r\n    else{\r\n            return(false);\r\n        }\r\n\r\n             \r\n         }\r\n         \r\n    function _createBond(address _to, uint256 class, uint256 nonce, uint256 _amount) private returns(bool) {\r\n    \r\n        if(last_bond_nonce[class]<nonce)\r\n        {last_bond_nonce[class]=nonce;}\r\n        _nonceCreated[class].push(nonce);\r\n        _info[class][nonce][1]=_genesis_nonce_time[class] + (nonce) * _Fibonacci_epoch[class];\r\n        _balances[_to][class][nonce]+=_amount;\r\n        _activeSupply[class][nonce]+=_amount;\r\n        emit eventIssueBond(msg.sender, _to, class,nonce, _amount);\r\n        return(true);\r\n    }\r\n    function _issueBond(address _to, uint256 class, uint256 nonce, uint256 _amount) private returns(bool) {\r\n       \r\n       \r\n        if (totalSupply(class,nonce)==0){\r\n            _createBond(_to,class,nonce,_amount);\r\n            return(true);\r\n            }\r\n            \r\n        else{\r\n            \r\n            _balances[_to][class][nonce]+=_amount;\r\n            _activeSupply[class][nonce]+=_amount;\r\n            emit eventIssueBond(msg.sender, _to, class,last_bond_nonce[class], _amount);\r\n            return(true);\r\n            }\r\n    }    \r\n    function _redeemBond(address _from, uint256 class, uint256 nonce, uint256 _amount) private returns(bool) {\r\n       \r\n        _balances[_from][class][nonce]-=_amount;\r\n        _activeSupply[class][nonce]-=_amount;\r\n        _redeemedSupply[class][nonce]+=_amount;\r\n        emit eventRedeemBond( msg.sender,_from, class, nonce, _amount);\r\n        return(true);\r\n    }    \r\n    function _transferBond(address _from, address _to, uint256 class, uint256 nonce, uint256 _amount) private returns(bool){      \r\n        _balances[_from][class][nonce]-=_amount;\r\n        _balances[_to][class][nonce]+=_amount;\r\n        emit eventTransferBond( msg.sender,_from,_to, class, nonce, _amount);\r\n        return(true);\r\n    \r\n            }\r\n    function _burnBond(address _from, uint256 class, uint256 nonce, uint256 _amount) private returns(bool){      \r\n        _balances[_from][class][nonce]-=_amount;\r\n        emit eventBurnBond( msg.sender,_from, class, nonce, _amount);\r\n        return(true);\r\n    \r\n            }\r\n            \r\n    function issueBond(address _to, uint256  class, uint256 _amount) external override returns(bool){\r\n        //require(msg.sender==_bankAddress[class], \"ERC659: operator unauthorized\");\r\n        require(_to != address(0), \"ERC659: issue bond to the zero address\");\r\n        require(_amount >= 100, \"ERC659: invalid amount\");\r\n        if(_genesis_nonce_time[class]==0){_genesis_nonce_time[class]=now-now % _Fibonacci_epoch[class];}\r\n        uint256  now_nonce=(now-_genesis_nonce_time[class])/_Fibonacci_epoch[class];\r\n        uint256 FibonacciTimeEponge0=1;\r\n        uint256 FibonacciTimeEponge1=2;\r\n        uint256 FibonacciTimeEponge;\r\n        uint256 amount_out_eponge;\r\n        for (uint i=0; i<_Fibonacci_number[class]; i++) {\r\n            if(i==0){FibonacciTimeEponge=1;}\r\n            else{\r\n                if(i==1){FibonacciTimeEponge=2;}\r\n                else{\r\n                    FibonacciTimeEponge=(FibonacciTimeEponge0+FibonacciTimeEponge1);\r\n                    FibonacciTimeEponge0=FibonacciTimeEponge1;\r\n                    FibonacciTimeEponge1=FibonacciTimeEponge;\r\n                    \r\n            }\r\n        }   \r\n            amount_out_eponge+=FibonacciTimeEponge;     \r\n}\r\n        \r\n        amount_out_eponge=_amount*1e3/amount_out_eponge;\r\n        FibonacciTimeEponge=0;\r\n        FibonacciTimeEponge0=1;\r\n        FibonacciTimeEponge1=2;\r\n        for (uint i=0; i<_Fibonacci_number[class]; i++) {\r\n            if(i==0){FibonacciTimeEponge=1;}\r\n            else{\r\n                if(i==1){FibonacciTimeEponge=2;}\r\n                else{\r\n                    FibonacciTimeEponge=(FibonacciTimeEponge0+FibonacciTimeEponge1);\r\n                    FibonacciTimeEponge0=FibonacciTimeEponge1;\r\n                    FibonacciTimeEponge1=FibonacciTimeEponge;\r\n            }\r\n        }   \r\n            require(_issueBond( _to, class, now_nonce + FibonacciTimeEponge, amount_out_eponge * FibonacciTimeEponge/1e3) == true);\r\n    }    \r\n      return(true);\r\n}\r\n    function redeemBond(address _from, uint256 class, uint256[] calldata nonce, uint256[] calldata  _amount) external override returns(bool){\r\n        require(msg.sender==_bankAddress[class] || msg.sender==_from, \"ERC659: operator unauthorized\");\r\n        for (uint i=0; i<nonce.length; i++) {\r\n            require(_balances[_from][class][nonce[i]] >= _amount[i], \"ERC659: not enough bond for redemption\");\r\n            require(bondIsRedeemable(class,nonce[i])==true, \"ERC659: can't redeem bond before it's redemption day\");\r\n            require(_redeemBond(_from,class,nonce[i],_amount[i]));\r\n        }\r\n        \r\n        return(true);\r\n\r\n       \r\n        }\r\n    function transferBond(address _from, address _to, uint256[] calldata class, uint256[] calldata nonce, uint256[] calldata _amount) external override returns(bool){ \r\n        \r\n        for (uint n=0; n<nonce.length; n++) {\r\n            require(msg.sender==_bankAddress[class[n]] || msg.sender==_from, \"ERC659: operator unauthorized\");\r\n            require(_balances[_from][class[n]][nonce[n]] >= _amount[n], \"ERC659: not enough bond to transfer\");\r\n            require(_to!=address(0), \"ERC659: cant't transfer to zero bond, use 'burnBond()' instead\");\r\n            require(_transferBond(_from, _to, class[n], nonce[n], _amount[n]));\r\n           \r\n            \r\n        }\r\n        return(true);\r\n    }\r\n    function burnBond(address _from, uint256[] calldata class, uint256[] calldata nonce, uint256[] calldata _amount) external override returns(bool){\r\n   \r\n        for (uint n=0; n<nonce.length; n++) {\r\n            require(msg.sender==_bankAddress[class[n]] || msg.sender==_from, \"ERC659: operator unauthorized\");\r\n            require(_balances[_from][class[n]][nonce[n]] >= _amount[n], \"ERC659: not enough bond to burn\");\r\n            require(_burnBond(_from, class[n], nonce[n], _amount[n]));\r\n           \r\n            \r\n        }\r\n        return(true);\r\n    }\r\n}",
  "sourcePath": "D://workGroup/contracts/TestBond.sol",
  "compiler": {
    "name": "solc",
    "version": "0.6.8+commit.0bbfe453.Emscripten.clang"
  },
  "schemaVersion": "3.3.3",
  "updatedAt": "2021-04-02T16:59:14.846Z",
  "devdoc": {
    "methods": {}
  },
  "userdoc": {
    "methods": {}
  }
}